{"contracts/RossLottery.sol":{"RossRaffle":{"abi":[{"inputs":[{"internalType":"address","name":"vrfCoordinatorV2","type":"address"},{"internalType":"uint256","name":"entranceFee","type":"uint256"},{"internalType":"bytes32","name":"gasLane","type":"bytes32"},{"internalType":"uint64","name":"subscriptionId","type":"uint64"},{"internalType":"uint32","name":"callbackGasLimit","type":"uint32"},{"internalType":"uint256","name":"interval","type":"uint256"}],"stateMutability":"nonpayable","type":"constructor"},{"inputs":[{"internalType":"address","name":"have","type":"address"},{"internalType":"address","name":"want","type":"address"}],"name":"OnlyCoordinatorCanFulfill","type":"error"},{"inputs":[{"internalType":"uint256","name":"currentBalance","type":"uint256"},{"internalType":"uint256","name":"numplayers","type":"uint256"},{"internalType":"uint256","name":"raffleState","type":"uint256"}],"name":"RossRaffle_UpkeepNotNeeded","type":"error"},{"inputs":[],"name":"RossRaffle__NotEnoughETHEntered","type":"error"},{"inputs":[],"name":"RossRaffle__NotOpen","type":"error"},{"inputs":[],"name":"RossRaffle__TransferFailed","type":"error"},{"anonymous":false,"inputs":[{"indexed":true,"internalType":"address","name":"player","type":"address"}],"name":"RaffleEnter","type":"event"},{"anonymous":false,"inputs":[{"indexed":true,"internalType":"uint256","name":"requestId","type":"uint256"}],"name":"RequestedRaffleWinner","type":"event"},{"anonymous":false,"inputs":[{"indexed":true,"internalType":"address","name":"winner","type":"address"}],"name":"WinnerPicked","type":"event"},{"inputs":[{"internalType":"bytes","name":"","type":"bytes"}],"name":"checkUpkeep","outputs":[{"internalType":"bool","name":"upkeepNeeded","type":"bool"},{"internalType":"bytes","name":"something","type":"bytes"}],"stateMutability":"view","type":"function"},{"inputs":[],"name":"enterRaffle","outputs":[],"stateMutability":"payable","type":"function"},{"inputs":[],"name":"getEntranceFee","outputs":[{"internalType":"uint256","name":"","type":"uint256"}],"stateMutability":"view","type":"function"},{"inputs":[],"name":"getInterval","outputs":[{"internalType":"uint256","name":"","type":"uint256"}],"stateMutability":"view","type":"function"},{"inputs":[],"name":"getNumWords","outputs":[{"internalType":"uint256","name":"","type":"uint256"}],"stateMutability":"pure","type":"function"},{"inputs":[{"internalType":"uint256","name":"index","type":"uint256"}],"name":"getPlayer","outputs":[{"internalType":"address","name":"","type":"address"}],"stateMutability":"view","type":"function"},{"inputs":[],"name":"getRaffleState","outputs":[{"internalType":"enum RossRaffle.RaffleState","name":"","type":"uint8"}],"stateMutability":"view","type":"function"},{"inputs":[],"name":"getRecentWinner","outputs":[{"internalType":"address","name":"","type":"address"}],"stateMutability":"view","type":"function"},{"inputs":[{"internalType":"bytes","name":"","type":"bytes"}],"name":"performUpkeep","outputs":[],"stateMutability":"nonpayable","type":"function"},{"inputs":[{"internalType":"uint256","name":"requestId","type":"uint256"},{"internalType":"uint256[]","name":"randomWords","type":"uint256[]"}],"name":"rawFulfillRandomWords","outputs":[],"stateMutability":"nonpayable","type":"function"}],"devdoc":{"kind":"dev","methods":{},"version":1},"evm":{"bytecode":{"linkReferences":{},"object":"6101406040523480156200001257600080fd5b5060405162001689380380620016898339818101604052810190620000389190620001ab565b858073ffffffffffffffffffffffffffffffffffffffff1660808173ffffffffffffffffffffffffffffffffffffffff1660601b81525050508460a081815250508573ffffffffffffffffffffffffffffffffffffffff1660c08173ffffffffffffffffffffffffffffffffffffffff1660601b815250508360e081815250508267ffffffffffffffff166101008167ffffffffffffffff1660c01b815250508163ffffffff166101208163ffffffff1660e01b815250506000600160006101000a81548160ff02191690836001811115620001195762000118620002b3565b5b0217905550426002819055508060038190555050505050505062000369565b6000815190506200014981620002e7565b92915050565b600081519050620001608162000301565b92915050565b60008151905062000177816200031b565b92915050565b6000815190506200018e8162000335565b92915050565b600081519050620001a5816200034f565b92915050565b60008060008060008060c08789031215620001cb57620001ca620002e2565b5b6000620001db89828a0162000138565b9650506020620001ee89828a0162000166565b95505060406200020189828a016200014f565b94505060606200021489828a0162000194565b93505060806200022789828a016200017d565b92505060a06200023a89828a0162000166565b9150509295509295509295565b6000620002548262000265565b9050919050565b6000819050919050565b600073ffffffffffffffffffffffffffffffffffffffff82169050919050565b6000819050919050565b600063ffffffff82169050919050565b600067ffffffffffffffff82169050919050565b7f4e487b7100000000000000000000000000000000000000000000000000000000600052602160045260246000fd5b600080fd5b620002f28162000247565b8114620002fe57600080fd5b50565b6200030c816200025b565b81146200031857600080fd5b50565b620003268162000285565b81146200033257600080fd5b50565b62000340816200028f565b81146200034c57600080fd5b50565b6200035a816200029f565b81146200036657600080fd5b50565b60805160601c60a05160c05160601c60e0516101005160c01c6101205160e01c6112b6620003d360003960006105e9015260006105c6015260006105a501526000610569015260008181610248015261034501526000818161028501526102d901526112b66000f3fe6080604052600436106100915760003560e01c8063473f1ddc11610059578063473f1ddc1461014857806353a2c19a146101735780636e04ff0d1461019e57806391ad27b4146101dc578063e55ae4e81461020757610091565b806309bc33a714610096578063115cbaf5146100c15780631fe543e3146100ec5780632cfcc539146101155780634585e33b1461011f575b600080fd5b3480156100a257600080fd5b506100ab610244565b6040516100b89190610eaf565b60405180910390f35b3480156100cd57600080fd5b506100d661026c565b6040516100e39190610e94565b60405180910390f35b3480156100f857600080fd5b50610113600480360381019061010e9190610c79565b610283565b005b61011d610343565b005b34801561012b57600080fd5b5061014660048036038101906101419190610bd6565b6104b2565b005b34801561015457600080fd5b5061015d6106b0565b60405161016a9190610dcd565b60405180910390f35b34801561017f57600080fd5b506101886106da565b6040516101959190610eaf565b60405180910390f35b3480156101aa57600080fd5b506101c560048036038101906101c09190610bd6565b6106e7565b6040516101d3929190610e11565b60405180910390f35b3480156101e857600080fd5b506101f1610775565b6040516101fe9190610eaf565b60405180910390f35b34801561021357600080fd5b5061022e60048036038101906102299190610c1f565b61077f565b60405161023b9190610dcd565b60405180910390f35b60007f0000000000000000000000000000000000000000000000000000000000000000905090565b6000600160009054906101000a900460ff16905090565b7f000000000000000000000000000000000000000000000000000000000000000073ffffffffffffffffffffffffffffffffffffffff163373ffffffffffffffffffffffffffffffffffffffff161461033557337f00000000000000000000000000000000000000000000000000000000000000006040517f1cf993f400000000000000000000000000000000000000000000000000000000815260040161032c929190610de8565b60405180910390fd5b61033f82826107c6565b5050565b7f000000000000000000000000000000000000000000000000000000000000000034101561039d576040517f103c37ff00000000000000000000000000000000000000000000000000000000815260040160405180910390fd5b600060018111156103b1576103b061119b565b5b600160009054906101000a900460ff1660018111156103d3576103d261119b565b5b1461040a576040517fd6b7f30500000000000000000000000000000000000000000000000000000000815260040160405180910390fd5b6000339080600181540180825580915050600190039060005260206000200160009091909190916101000a81548173ffffffffffffffffffffffffffffffffffffffff021916908373ffffffffffffffffffffffffffffffffffffffff1602179055503373ffffffffffffffffffffffffffffffffffffffff167f0805e1d667bddb8a95f0f09880cf94f403fb596ce79928d9f29b74203ba284d460405160405180910390a2565b60006104cc604051806020016040528060008152506106e7565b5090508061053b5747600080549050600160009054906101000a900460ff1660018111156104fd576104fc61119b565b5b6040517f697a2a3e00000000000000000000000000000000000000000000000000000000815260040161053293929190610eca565b60405180910390fd5b60018060006101000a81548160ff021916908360018111156105605761055f61119b565b5b021790555060007f000000000000000000000000000000000000000000000000000000000000000073ffffffffffffffffffffffffffffffffffffffff16635d3b1d307f00000000000000000000000000000000000000000000000000000000000000007f000000000000000000000000000000000000000000000000000000000000000060037f000000000000000000000000000000000000000000000000000000000000000060016040518663ffffffff1660e01b815260040161062a959493929190610e41565b602060405180830381600087803b15801561064457600080fd5b505af1158015610658573d6000803e3d6000fd5b505050506040513d601f19601f8201168201806040525081019061067c9190610c4c565b9050807fcd6e45c8998311cab7e9d4385596cac867e20a0587194b954fa3a731c93ce78b60405160405180910390a2505050565b6000600460009054906101000a900473ffffffffffffffffffffffffffffffffffffffff16905090565b6000600161ffff16905090565b600060606000806001811115610700576106ff61119b565b5b600160009054906101000a900460ff1660018111156107225761072161119b565b5b1490506000600354600254426107389190610faa565b119050600080600080549050119050600080471190508380156107585750825b80156107615750815b801561076a5750805b955050505050915091565b6000600354905090565b6000808281548110610794576107936111ca565b5b9060005260206000200160009054906101000a900473ffffffffffffffffffffffffffffffffffffffff169050919050565b60008080549050826000815181106107e1576107e06111ca565b5b60200260200101516107f3919061110c565b9050600080828154811061080a576108096111ca565b5b9060005260206000200160009054906101000a900473ffffffffffffffffffffffffffffffffffffffff16905080600460006101000a81548173ffffffffffffffffffffffffffffffffffffffff021916908373ffffffffffffffffffffffffffffffffffffffff1602179055506000600160006101000a81548160ff0219169083600181111561089e5761089d61119b565b5b0217905550600067ffffffffffffffff8111156108be576108bd6111f9565b5b6040519080825280602002602001820160405280156108ec5781602001602082028036833780820191505090505b50600090805190602001906109029291906109f7565b504260028190555060008173ffffffffffffffffffffffffffffffffffffffff164760405161093090610db8565b60006040518083038185875af1925050503d806000811461096d576040519150601f19603f3d011682016040523d82523d6000602084013e610972565b606091505b50509050806109ad576040517f93861d6800000000000000000000000000000000000000000000000000000000815260040160405180910390fd5b8173ffffffffffffffffffffffffffffffffffffffff167f5b690ec4a06fe979403046eaeea5b3ce38524683c3001f662c8b5a829632f7df60405160405180910390a25050505050565b828054828255906000526020600020908101928215610a70579160200282015b82811115610a6f5782518260006101000a81548173ffffffffffffffffffffffffffffffffffffffff021916908373ffffffffffffffffffffffffffffffffffffffff16021790555091602001919060010190610a17565b5b509050610a7d9190610a81565b5090565b5b80821115610a9a576000816000905550600101610a82565b5090565b6000610ab1610aac84610f26565b610f01565b90508083825260208201905082856020860282011115610ad457610ad361122d565b5b60005b85811015610b045781610aea8882610bac565b845260208401935060208301925050600181019050610ad7565b5050509392505050565b6000610b21610b1c84610f52565b610f01565b905082815260208101848484011115610b3d57610b3c611232565b5b610b48848285611099565b509392505050565b600082601f830112610b6557610b64611228565b5b8135610b75848260208601610a9e565b91505092915050565b600082601f830112610b9357610b92611228565b5b8135610ba3848260208601610b0e565b91505092915050565b600081359050610bbb81611269565b92915050565b600081519050610bd081611269565b92915050565b600060208284031215610bec57610beb61123c565b5b600082013567ffffffffffffffff811115610c0a57610c09611237565b5b610c1684828501610b7e565b91505092915050565b600060208284031215610c3557610c3461123c565b5b6000610c4384828501610bac565b91505092915050565b600060208284031215610c6257610c6161123c565b5b6000610c7084828501610bc1565b91505092915050565b60008060408385031215610c9057610c8f61123c565b5b6000610c9e85828601610bac565b925050602083013567ffffffffffffffff811115610cbf57610cbe611237565b5b610ccb85828601610b50565b9150509250929050565b610cde81610fde565b82525050565b610ced81610ff0565b82525050565b610cfc81610ffc565b82525050565b6000610d0d82610f83565b610d178185610f8e565b9350610d278185602086016110a8565b610d3081611241565b840191505092915050565b610d4481611075565b82525050565b6000610d57600083610f9f565b9150610d6282611252565b600082019050919050565b610d7681611019565b82525050565b610d8581611087565b82525050565b610d9481611047565b82525050565b610da381611051565b82525050565b610db281611061565b82525050565b6000610dc382610d4a565b9150819050919050565b6000602082019050610de26000830184610cd5565b92915050565b6000604082019050610dfd6000830185610cd5565b610e0a6020830184610cd5565b9392505050565b6000604082019050610e266000830185610ce4565b8181036020830152610e388184610d02565b90509392505050565b600060a082019050610e566000830188610cf3565b610e636020830187610da9565b610e706040830186610d6d565b610e7d6060830185610d9a565b610e8a6080830184610d7c565b9695505050505050565b6000602082019050610ea96000830184610d3b565b92915050565b6000602082019050610ec46000830184610d8b565b92915050565b6000606082019050610edf6000830186610d8b565b610eec6020830185610d8b565b610ef96040830184610d8b565b949350505050565b6000610f0b610f1c565b9050610f1782826110db565b919050565b6000604051905090565b600067ffffffffffffffff821115610f4157610f406111f9565b5b602082029050602081019050919050565b600067ffffffffffffffff821115610f6d57610f6c6111f9565b5b610f7682611241565b9050602081019050919050565b600081519050919050565b600082825260208201905092915050565b600081905092915050565b6000610fb582611047565b9150610fc083611047565b925082821015610fd357610fd261113d565b5b828203905092915050565b6000610fe982611027565b9050919050565b60008115159050919050565b6000819050919050565b600081905061101482611255565b919050565b600061ffff82169050919050565b600073ffffffffffffffffffffffffffffffffffffffff82169050919050565b6000819050919050565b600063ffffffff82169050919050565b600067ffffffffffffffff82169050919050565b600061108082611006565b9050919050565b600061109282611019565b9050919050565b82818337600083830152505050565b60005b838110156110c65780820151818401526020810190506110ab565b838111156110d5576000848401525b50505050565b6110e482611241565b810181811067ffffffffffffffff82111715611103576111026111f9565b5b80604052505050565b600061111782611047565b915061112283611047565b9250826111325761113161116c565b5b828206905092915050565b7f4e487b7100000000000000000000000000000000000000000000000000000000600052601160045260246000fd5b7f4e487b7100000000000000000000000000000000000000000000000000000000600052601260045260246000fd5b7f4e487b7100000000000000000000000000000000000000000000000000000000600052602160045260246000fd5b7f4e487b7100000000000000000000000000000000000000000000000000000000600052603260045260246000fd5b7f4e487b7100000000000000000000000000000000000000000000000000000000600052604160045260246000fd5b600080fd5b600080fd5b600080fd5b600080fd5b600080fd5b6000601f19601f8301169050919050565b50565b600281106112665761126561119b565b5b50565b61127281611047565b811461127d57600080fd5b5056fea264697066735822122002c2cc73b6d25f85d769a9f0ba839aab610c1ad7473d86303eef8aa8ad3f927664736f6c63430008070033","opcodes":"PUSH2 0x140 PUSH1 0x40 MSTORE CALLVALUE DUP1 ISZERO PUSH3 0x12 JUMPI PUSH1 0x0 DUP1 REVERT JUMPDEST POP PUSH1 0x40 MLOAD PUSH3 0x1689 CODESIZE SUB DUP1 PUSH3 0x1689 DUP4 CODECOPY DUP2 DUP2 ADD PUSH1 0x40 MSTORE DUP2 ADD SWAP1 PUSH3 0x38 SWAP2 SWAP1 PUSH3 0x1AB JUMP JUMPDEST DUP6 DUP1 PUSH20 0xFFFFFFFFFFFFFFFFFFFFFFFFFFFFFFFFFFFFFFFF AND PUSH1 0x80 DUP2 PUSH20 0xFFFFFFFFFFFFFFFFFFFFFFFFFFFFFFFFFFFFFFFF AND PUSH1 0x60 SHL DUP2 MSTORE POP POP POP DUP5 PUSH1 0xA0 DUP2 DUP2 MSTORE POP POP DUP6 PUSH20 0xFFFFFFFFFFFFFFFFFFFFFFFFFFFFFFFFFFFFFFFF AND PUSH1 0xC0 DUP2 PUSH20 0xFFFFFFFFFFFFFFFFFFFFFFFFFFFFFFFFFFFFFFFF AND PUSH1 0x60 SHL DUP2 MSTORE POP POP DUP4 PUSH1 0xE0 DUP2 DUP2 MSTORE POP POP DUP3 PUSH8 0xFFFFFFFFFFFFFFFF AND PUSH2 0x100 DUP2 PUSH8 0xFFFFFFFFFFFFFFFF AND PUSH1 0xC0 SHL DUP2 MSTORE POP POP DUP2 PUSH4 0xFFFFFFFF AND PUSH2 0x120 DUP2 PUSH4 0xFFFFFFFF AND PUSH1 0xE0 SHL DUP2 MSTORE POP POP PUSH1 0x0 PUSH1 0x1 PUSH1 0x0 PUSH2 0x100 EXP DUP2 SLOAD DUP2 PUSH1 0xFF MUL NOT AND SWAP1 DUP4 PUSH1 0x1 DUP2 GT ISZERO PUSH3 0x119 JUMPI PUSH3 0x118 PUSH3 0x2B3 JUMP JUMPDEST JUMPDEST MUL OR SWAP1 SSTORE POP TIMESTAMP PUSH1 0x2 DUP2 SWAP1 SSTORE POP DUP1 PUSH1 0x3 DUP2 SWAP1 SSTORE POP POP POP POP POP POP POP PUSH3 0x369 JUMP JUMPDEST PUSH1 0x0 DUP2 MLOAD SWAP1 POP PUSH3 0x149 DUP2 PUSH3 0x2E7 JUMP JUMPDEST SWAP3 SWAP2 POP POP JUMP JUMPDEST PUSH1 0x0 DUP2 MLOAD SWAP1 POP PUSH3 0x160 DUP2 PUSH3 0x301 JUMP JUMPDEST SWAP3 SWAP2 POP POP JUMP JUMPDEST PUSH1 0x0 DUP2 MLOAD SWAP1 POP PUSH3 0x177 DUP2 PUSH3 0x31B JUMP JUMPDEST SWAP3 SWAP2 POP POP JUMP JUMPDEST PUSH1 0x0 DUP2 MLOAD SWAP1 POP PUSH3 0x18E DUP2 PUSH3 0x335 JUMP JUMPDEST SWAP3 SWAP2 POP POP JUMP JUMPDEST PUSH1 0x0 DUP2 MLOAD SWAP1 POP PUSH3 0x1A5 DUP2 PUSH3 0x34F JUMP JUMPDEST SWAP3 SWAP2 POP POP JUMP JUMPDEST PUSH1 0x0 DUP1 PUSH1 0x0 DUP1 PUSH1 0x0 DUP1 PUSH1 0xC0 DUP8 DUP10 SUB SLT ISZERO PUSH3 0x1CB JUMPI PUSH3 0x1CA PUSH3 0x2E2 JUMP JUMPDEST JUMPDEST PUSH1 0x0 PUSH3 0x1DB DUP10 DUP3 DUP11 ADD PUSH3 0x138 JUMP JUMPDEST SWAP7 POP POP PUSH1 0x20 PUSH3 0x1EE DUP10 DUP3 DUP11 ADD PUSH3 0x166 JUMP JUMPDEST SWAP6 POP POP PUSH1 0x40 PUSH3 0x201 DUP10 DUP3 DUP11 ADD PUSH3 0x14F JUMP JUMPDEST SWAP5 POP POP PUSH1 0x60 PUSH3 0x214 DUP10 DUP3 DUP11 ADD PUSH3 0x194 JUMP JUMPDEST SWAP4 POP POP PUSH1 0x80 PUSH3 0x227 DUP10 DUP3 DUP11 ADD PUSH3 0x17D JUMP JUMPDEST SWAP3 POP POP PUSH1 0xA0 PUSH3 0x23A DUP10 DUP3 DUP11 ADD PUSH3 0x166 JUMP JUMPDEST SWAP2 POP POP SWAP3 SWAP6 POP SWAP3 SWAP6 POP SWAP3 SWAP6 JUMP JUMPDEST PUSH1 0x0 PUSH3 0x254 DUP3 PUSH3 0x265 JUMP JUMPDEST SWAP1 POP SWAP2 SWAP1 POP JUMP JUMPDEST PUSH1 0x0 DUP2 SWAP1 POP SWAP2 SWAP1 POP JUMP JUMPDEST PUSH1 0x0 PUSH20 0xFFFFFFFFFFFFFFFFFFFFFFFFFFFFFFFFFFFFFFFF DUP3 AND SWAP1 POP SWAP2 SWAP1 POP JUMP JUMPDEST PUSH1 0x0 DUP2 SWAP1 POP SWAP2 SWAP1 POP JUMP JUMPDEST PUSH1 0x0 PUSH4 0xFFFFFFFF DUP3 AND SWAP1 POP SWAP2 SWAP1 POP JUMP JUMPDEST PUSH1 0x0 PUSH8 0xFFFFFFFFFFFFFFFF DUP3 AND SWAP1 POP SWAP2 SWAP1 POP JUMP JUMPDEST PUSH32 0x4E487B7100000000000000000000000000000000000000000000000000000000 PUSH1 0x0 MSTORE PUSH1 0x21 PUSH1 0x4 MSTORE PUSH1 0x24 PUSH1 0x0 REVERT JUMPDEST PUSH1 0x0 DUP1 REVERT JUMPDEST PUSH3 0x2F2 DUP2 PUSH3 0x247 JUMP JUMPDEST DUP2 EQ PUSH3 0x2FE JUMPI PUSH1 0x0 DUP1 REVERT JUMPDEST POP JUMP JUMPDEST PUSH3 0x30C DUP2 PUSH3 0x25B JUMP JUMPDEST DUP2 EQ PUSH3 0x318 JUMPI PUSH1 0x0 DUP1 REVERT JUMPDEST POP JUMP JUMPDEST PUSH3 0x326 DUP2 PUSH3 0x285 JUMP JUMPDEST DUP2 EQ PUSH3 0x332 JUMPI PUSH1 0x0 DUP1 REVERT JUMPDEST POP JUMP JUMPDEST PUSH3 0x340 DUP2 PUSH3 0x28F JUMP JUMPDEST DUP2 EQ PUSH3 0x34C JUMPI PUSH1 0x0 DUP1 REVERT JUMPDEST POP JUMP JUMPDEST PUSH3 0x35A DUP2 PUSH3 0x29F JUMP JUMPDEST DUP2 EQ PUSH3 0x366 JUMPI PUSH1 0x0 DUP1 REVERT JUMPDEST POP JUMP JUMPDEST PUSH1 0x80 MLOAD PUSH1 0x60 SHR PUSH1 0xA0 MLOAD PUSH1 0xC0 MLOAD PUSH1 0x60 SHR PUSH1 0xE0 MLOAD PUSH2 0x100 MLOAD PUSH1 0xC0 SHR PUSH2 0x120 MLOAD PUSH1 0xE0 SHR PUSH2 0x12B6 PUSH3 0x3D3 PUSH1 0x0 CODECOPY PUSH1 0x0 PUSH2 0x5E9 ADD MSTORE PUSH1 0x0 PUSH2 0x5C6 ADD MSTORE PUSH1 0x0 PUSH2 0x5A5 ADD MSTORE PUSH1 0x0 PUSH2 0x569 ADD MSTORE PUSH1 0x0 DUP2 DUP2 PUSH2 0x248 ADD MSTORE PUSH2 0x345 ADD MSTORE PUSH1 0x0 DUP2 DUP2 PUSH2 0x285 ADD MSTORE PUSH2 0x2D9 ADD MSTORE PUSH2 0x12B6 PUSH1 0x0 RETURN INVALID PUSH1 0x80 PUSH1 0x40 MSTORE PUSH1 0x4 CALLDATASIZE LT PUSH2 0x91 JUMPI PUSH1 0x0 CALLDATALOAD PUSH1 0xE0 SHR DUP1 PUSH4 0x473F1DDC GT PUSH2 0x59 JUMPI DUP1 PUSH4 0x473F1DDC EQ PUSH2 0x148 JUMPI DUP1 PUSH4 0x53A2C19A EQ PUSH2 0x173 JUMPI DUP1 PUSH4 0x6E04FF0D EQ PUSH2 0x19E JUMPI DUP1 PUSH4 0x91AD27B4 EQ PUSH2 0x1DC JUMPI DUP1 PUSH4 0xE55AE4E8 EQ PUSH2 0x207 JUMPI PUSH2 0x91 JUMP JUMPDEST DUP1 PUSH4 0x9BC33A7 EQ PUSH2 0x96 JUMPI DUP1 PUSH4 0x115CBAF5 EQ PUSH2 0xC1 JUMPI DUP1 PUSH4 0x1FE543E3 EQ PUSH2 0xEC JUMPI DUP1 PUSH4 0x2CFCC539 EQ PUSH2 0x115 JUMPI DUP1 PUSH4 0x4585E33B EQ PUSH2 0x11F JUMPI JUMPDEST PUSH1 0x0 DUP1 REVERT JUMPDEST CALLVALUE DUP1 ISZERO PUSH2 0xA2 JUMPI PUSH1 0x0 DUP1 REVERT JUMPDEST POP PUSH2 0xAB PUSH2 0x244 JUMP JUMPDEST PUSH1 0x40 MLOAD PUSH2 0xB8 SWAP2 SWAP1 PUSH2 0xEAF JUMP JUMPDEST PUSH1 0x40 MLOAD DUP1 SWAP2 SUB SWAP1 RETURN JUMPDEST CALLVALUE DUP1 ISZERO PUSH2 0xCD JUMPI PUSH1 0x0 DUP1 REVERT JUMPDEST POP PUSH2 0xD6 PUSH2 0x26C JUMP JUMPDEST PUSH1 0x40 MLOAD PUSH2 0xE3 SWAP2 SWAP1 PUSH2 0xE94 JUMP JUMPDEST PUSH1 0x40 MLOAD DUP1 SWAP2 SUB SWAP1 RETURN JUMPDEST CALLVALUE DUP1 ISZERO PUSH2 0xF8 JUMPI PUSH1 0x0 DUP1 REVERT JUMPDEST POP PUSH2 0x113 PUSH1 0x4 DUP1 CALLDATASIZE SUB DUP2 ADD SWAP1 PUSH2 0x10E SWAP2 SWAP1 PUSH2 0xC79 JUMP JUMPDEST PUSH2 0x283 JUMP JUMPDEST STOP JUMPDEST PUSH2 0x11D PUSH2 0x343 JUMP JUMPDEST STOP JUMPDEST CALLVALUE DUP1 ISZERO PUSH2 0x12B JUMPI PUSH1 0x0 DUP1 REVERT JUMPDEST POP PUSH2 0x146 PUSH1 0x4 DUP1 CALLDATASIZE SUB DUP2 ADD SWAP1 PUSH2 0x141 SWAP2 SWAP1 PUSH2 0xBD6 JUMP JUMPDEST PUSH2 0x4B2 JUMP JUMPDEST STOP JUMPDEST CALLVALUE DUP1 ISZERO PUSH2 0x154 JUMPI PUSH1 0x0 DUP1 REVERT JUMPDEST POP PUSH2 0x15D PUSH2 0x6B0 JUMP JUMPDEST PUSH1 0x40 MLOAD PUSH2 0x16A SWAP2 SWAP1 PUSH2 0xDCD JUMP JUMPDEST PUSH1 0x40 MLOAD DUP1 SWAP2 SUB SWAP1 RETURN JUMPDEST CALLVALUE DUP1 ISZERO PUSH2 0x17F JUMPI PUSH1 0x0 DUP1 REVERT JUMPDEST POP PUSH2 0x188 PUSH2 0x6DA JUMP JUMPDEST PUSH1 0x40 MLOAD PUSH2 0x195 SWAP2 SWAP1 PUSH2 0xEAF JUMP JUMPDEST PUSH1 0x40 MLOAD DUP1 SWAP2 SUB SWAP1 RETURN JUMPDEST CALLVALUE DUP1 ISZERO PUSH2 0x1AA JUMPI PUSH1 0x0 DUP1 REVERT JUMPDEST POP PUSH2 0x1C5 PUSH1 0x4 DUP1 CALLDATASIZE SUB DUP2 ADD SWAP1 PUSH2 0x1C0 SWAP2 SWAP1 PUSH2 0xBD6 JUMP JUMPDEST PUSH2 0x6E7 JUMP JUMPDEST PUSH1 0x40 MLOAD PUSH2 0x1D3 SWAP3 SWAP2 SWAP1 PUSH2 0xE11 JUMP JUMPDEST PUSH1 0x40 MLOAD DUP1 SWAP2 SUB SWAP1 RETURN JUMPDEST CALLVALUE DUP1 ISZERO PUSH2 0x1E8 JUMPI PUSH1 0x0 DUP1 REVERT JUMPDEST POP PUSH2 0x1F1 PUSH2 0x775 JUMP JUMPDEST PUSH1 0x40 MLOAD PUSH2 0x1FE SWAP2 SWAP1 PUSH2 0xEAF JUMP JUMPDEST PUSH1 0x40 MLOAD DUP1 SWAP2 SUB SWAP1 RETURN JUMPDEST CALLVALUE DUP1 ISZERO PUSH2 0x213 JUMPI PUSH1 0x0 DUP1 REVERT JUMPDEST POP PUSH2 0x22E PUSH1 0x4 DUP1 CALLDATASIZE SUB DUP2 ADD SWAP1 PUSH2 0x229 SWAP2 SWAP1 PUSH2 0xC1F JUMP JUMPDEST PUSH2 0x77F JUMP JUMPDEST PUSH1 0x40 MLOAD PUSH2 0x23B SWAP2 SWAP1 PUSH2 0xDCD JUMP JUMPDEST PUSH1 0x40 MLOAD DUP1 SWAP2 SUB SWAP1 RETURN JUMPDEST PUSH1 0x0 PUSH32 0x0 SWAP1 POP SWAP1 JUMP JUMPDEST PUSH1 0x0 PUSH1 0x1 PUSH1 0x0 SWAP1 SLOAD SWAP1 PUSH2 0x100 EXP SWAP1 DIV PUSH1 0xFF AND SWAP1 POP SWAP1 JUMP JUMPDEST PUSH32 0x0 PUSH20 0xFFFFFFFFFFFFFFFFFFFFFFFFFFFFFFFFFFFFFFFF AND CALLER PUSH20 0xFFFFFFFFFFFFFFFFFFFFFFFFFFFFFFFFFFFFFFFF AND EQ PUSH2 0x335 JUMPI CALLER PUSH32 0x0 PUSH1 0x40 MLOAD PUSH32 0x1CF993F400000000000000000000000000000000000000000000000000000000 DUP2 MSTORE PUSH1 0x4 ADD PUSH2 0x32C SWAP3 SWAP2 SWAP1 PUSH2 0xDE8 JUMP JUMPDEST PUSH1 0x40 MLOAD DUP1 SWAP2 SUB SWAP1 REVERT JUMPDEST PUSH2 0x33F DUP3 DUP3 PUSH2 0x7C6 JUMP JUMPDEST POP POP JUMP JUMPDEST PUSH32 0x0 CALLVALUE LT ISZERO PUSH2 0x39D JUMPI PUSH1 0x40 MLOAD PUSH32 0x103C37FF00000000000000000000000000000000000000000000000000000000 DUP2 MSTORE PUSH1 0x4 ADD PUSH1 0x40 MLOAD DUP1 SWAP2 SUB SWAP1 REVERT JUMPDEST PUSH1 0x0 PUSH1 0x1 DUP2 GT ISZERO PUSH2 0x3B1 JUMPI PUSH2 0x3B0 PUSH2 0x119B JUMP JUMPDEST JUMPDEST PUSH1 0x1 PUSH1 0x0 SWAP1 SLOAD SWAP1 PUSH2 0x100 EXP SWAP1 DIV PUSH1 0xFF AND PUSH1 0x1 DUP2 GT ISZERO PUSH2 0x3D3 JUMPI PUSH2 0x3D2 PUSH2 0x119B JUMP JUMPDEST JUMPDEST EQ PUSH2 0x40A JUMPI PUSH1 0x40 MLOAD PUSH32 0xD6B7F30500000000000000000000000000000000000000000000000000000000 DUP2 MSTORE PUSH1 0x4 ADD PUSH1 0x40 MLOAD DUP1 SWAP2 SUB SWAP1 REVERT JUMPDEST PUSH1 0x0 CALLER SWAP1 DUP1 PUSH1 0x1 DUP2 SLOAD ADD DUP1 DUP3 SSTORE DUP1 SWAP2 POP POP PUSH1 0x1 SWAP1 SUB SWAP1 PUSH1 0x0 MSTORE PUSH1 0x20 PUSH1 0x0 KECCAK256 ADD PUSH1 0x0 SWAP1 SWAP2 SWAP1 SWAP2 SWAP1 SWAP2 PUSH2 0x100 EXP DUP2 SLOAD DUP2 PUSH20 0xFFFFFFFFFFFFFFFFFFFFFFFFFFFFFFFFFFFFFFFF MUL NOT AND SWAP1 DUP4 PUSH20 0xFFFFFFFFFFFFFFFFFFFFFFFFFFFFFFFFFFFFFFFF AND MUL OR SWAP1 SSTORE POP CALLER PUSH20 0xFFFFFFFFFFFFFFFFFFFFFFFFFFFFFFFFFFFFFFFF AND PUSH32 0x805E1D667BDDB8A95F0F09880CF94F403FB596CE79928D9F29B74203BA284D4 PUSH1 0x40 MLOAD PUSH1 0x40 MLOAD DUP1 SWAP2 SUB SWAP1 LOG2 JUMP JUMPDEST PUSH1 0x0 PUSH2 0x4CC PUSH1 0x40 MLOAD DUP1 PUSH1 0x20 ADD PUSH1 0x40 MSTORE DUP1 PUSH1 0x0 DUP2 MSTORE POP PUSH2 0x6E7 JUMP JUMPDEST POP SWAP1 POP DUP1 PUSH2 0x53B JUMPI SELFBALANCE PUSH1 0x0 DUP1 SLOAD SWAP1 POP PUSH1 0x1 PUSH1 0x0 SWAP1 SLOAD SWAP1 PUSH2 0x100 EXP SWAP1 DIV PUSH1 0xFF AND PUSH1 0x1 DUP2 GT ISZERO PUSH2 0x4FD JUMPI PUSH2 0x4FC PUSH2 0x119B JUMP JUMPDEST JUMPDEST PUSH1 0x40 MLOAD PUSH32 0x697A2A3E00000000000000000000000000000000000000000000000000000000 DUP2 MSTORE PUSH1 0x4 ADD PUSH2 0x532 SWAP4 SWAP3 SWAP2 SWAP1 PUSH2 0xECA JUMP JUMPDEST PUSH1 0x40 MLOAD DUP1 SWAP2 SUB SWAP1 REVERT JUMPDEST PUSH1 0x1 DUP1 PUSH1 0x0 PUSH2 0x100 EXP DUP2 SLOAD DUP2 PUSH1 0xFF MUL NOT AND SWAP1 DUP4 PUSH1 0x1 DUP2 GT ISZERO PUSH2 0x560 JUMPI PUSH2 0x55F PUSH2 0x119B JUMP JUMPDEST JUMPDEST MUL OR SWAP1 SSTORE POP PUSH1 0x0 PUSH32 0x0 PUSH20 0xFFFFFFFFFFFFFFFFFFFFFFFFFFFFFFFFFFFFFFFF AND PUSH4 0x5D3B1D30 PUSH32 0x0 PUSH32 0x0 PUSH1 0x3 PUSH32 0x0 PUSH1 0x1 PUSH1 0x40 MLOAD DUP7 PUSH4 0xFFFFFFFF AND PUSH1 0xE0 SHL DUP2 MSTORE PUSH1 0x4 ADD PUSH2 0x62A SWAP6 SWAP5 SWAP4 SWAP3 SWAP2 SWAP1 PUSH2 0xE41 JUMP JUMPDEST PUSH1 0x20 PUSH1 0x40 MLOAD DUP1 DUP4 SUB DUP2 PUSH1 0x0 DUP8 DUP1 EXTCODESIZE ISZERO DUP1 ISZERO PUSH2 0x644 JUMPI PUSH1 0x0 DUP1 REVERT JUMPDEST POP GAS CALL ISZERO DUP1 ISZERO PUSH2 0x658 JUMPI RETURNDATASIZE PUSH1 0x0 DUP1 RETURNDATACOPY RETURNDATASIZE PUSH1 0x0 REVERT JUMPDEST POP POP POP POP PUSH1 0x40 MLOAD RETURNDATASIZE PUSH1 0x1F NOT PUSH1 0x1F DUP3 ADD AND DUP3 ADD DUP1 PUSH1 0x40 MSTORE POP DUP2 ADD SWAP1 PUSH2 0x67C SWAP2 SWAP1 PUSH2 0xC4C JUMP JUMPDEST SWAP1 POP DUP1 PUSH32 0xCD6E45C8998311CAB7E9D4385596CAC867E20A0587194B954FA3A731C93CE78B PUSH1 0x40 MLOAD PUSH1 0x40 MLOAD DUP1 SWAP2 SUB SWAP1 LOG2 POP POP POP JUMP JUMPDEST PUSH1 0x0 PUSH1 0x4 PUSH1 0x0 SWAP1 SLOAD SWAP1 PUSH2 0x100 EXP SWAP1 DIV PUSH20 0xFFFFFFFFFFFFFFFFFFFFFFFFFFFFFFFFFFFFFFFF AND SWAP1 POP SWAP1 JUMP JUMPDEST PUSH1 0x0 PUSH1 0x1 PUSH2 0xFFFF AND SWAP1 POP SWAP1 JUMP JUMPDEST PUSH1 0x0 PUSH1 0x60 PUSH1 0x0 DUP1 PUSH1 0x1 DUP2 GT ISZERO PUSH2 0x700 JUMPI PUSH2 0x6FF PUSH2 0x119B JUMP JUMPDEST JUMPDEST PUSH1 0x1 PUSH1 0x0 SWAP1 SLOAD SWAP1 PUSH2 0x100 EXP SWAP1 DIV PUSH1 0xFF AND PUSH1 0x1 DUP2 GT ISZERO PUSH2 0x722 JUMPI PUSH2 0x721 PUSH2 0x119B JUMP JUMPDEST JUMPDEST EQ SWAP1 POP PUSH1 0x0 PUSH1 0x3 SLOAD PUSH1 0x2 SLOAD TIMESTAMP PUSH2 0x738 SWAP2 SWAP1 PUSH2 0xFAA JUMP JUMPDEST GT SWAP1 POP PUSH1 0x0 DUP1 PUSH1 0x0 DUP1 SLOAD SWAP1 POP GT SWAP1 POP PUSH1 0x0 DUP1 SELFBALANCE GT SWAP1 POP DUP4 DUP1 ISZERO PUSH2 0x758 JUMPI POP DUP3 JUMPDEST DUP1 ISZERO PUSH2 0x761 JUMPI POP DUP2 JUMPDEST DUP1 ISZERO PUSH2 0x76A JUMPI POP DUP1 JUMPDEST SWAP6 POP POP POP POP POP SWAP2 POP SWAP2 JUMP JUMPDEST PUSH1 0x0 PUSH1 0x3 SLOAD SWAP1 POP SWAP1 JUMP JUMPDEST PUSH1 0x0 DUP1 DUP3 DUP2 SLOAD DUP2 LT PUSH2 0x794 JUMPI PUSH2 0x793 PUSH2 0x11CA JUMP JUMPDEST JUMPDEST SWAP1 PUSH1 0x0 MSTORE PUSH1 0x20 PUSH1 0x0 KECCAK256 ADD PUSH1 0x0 SWAP1 SLOAD SWAP1 PUSH2 0x100 EXP SWAP1 DIV PUSH20 0xFFFFFFFFFFFFFFFFFFFFFFFFFFFFFFFFFFFFFFFF AND SWAP1 POP SWAP2 SWAP1 POP JUMP JUMPDEST PUSH1 0x0 DUP1 DUP1 SLOAD SWAP1 POP DUP3 PUSH1 0x0 DUP2 MLOAD DUP2 LT PUSH2 0x7E1 JUMPI PUSH2 0x7E0 PUSH2 0x11CA JUMP JUMPDEST JUMPDEST PUSH1 0x20 MUL PUSH1 0x20 ADD ADD MLOAD PUSH2 0x7F3 SWAP2 SWAP1 PUSH2 0x110C JUMP JUMPDEST SWAP1 POP PUSH1 0x0 DUP1 DUP3 DUP2 SLOAD DUP2 LT PUSH2 0x80A JUMPI PUSH2 0x809 PUSH2 0x11CA JUMP JUMPDEST JUMPDEST SWAP1 PUSH1 0x0 MSTORE PUSH1 0x20 PUSH1 0x0 KECCAK256 ADD PUSH1 0x0 SWAP1 SLOAD SWAP1 PUSH2 0x100 EXP SWAP1 DIV PUSH20 0xFFFFFFFFFFFFFFFFFFFFFFFFFFFFFFFFFFFFFFFF AND SWAP1 POP DUP1 PUSH1 0x4 PUSH1 0x0 PUSH2 0x100 EXP DUP2 SLOAD DUP2 PUSH20 0xFFFFFFFFFFFFFFFFFFFFFFFFFFFFFFFFFFFFFFFF MUL NOT AND SWAP1 DUP4 PUSH20 0xFFFFFFFFFFFFFFFFFFFFFFFFFFFFFFFFFFFFFFFF AND MUL OR SWAP1 SSTORE POP PUSH1 0x0 PUSH1 0x1 PUSH1 0x0 PUSH2 0x100 EXP DUP2 SLOAD DUP2 PUSH1 0xFF MUL NOT AND SWAP1 DUP4 PUSH1 0x1 DUP2 GT ISZERO PUSH2 0x89E JUMPI PUSH2 0x89D PUSH2 0x119B JUMP JUMPDEST JUMPDEST MUL OR SWAP1 SSTORE POP PUSH1 0x0 PUSH8 0xFFFFFFFFFFFFFFFF DUP2 GT ISZERO PUSH2 0x8BE JUMPI PUSH2 0x8BD PUSH2 0x11F9 JUMP JUMPDEST JUMPDEST PUSH1 0x40 MLOAD SWAP1 DUP1 DUP3 MSTORE DUP1 PUSH1 0x20 MUL PUSH1 0x20 ADD DUP3 ADD PUSH1 0x40 MSTORE DUP1 ISZERO PUSH2 0x8EC JUMPI DUP2 PUSH1 0x20 ADD PUSH1 0x20 DUP3 MUL DUP1 CALLDATASIZE DUP4 CALLDATACOPY DUP1 DUP3 ADD SWAP2 POP POP SWAP1 POP JUMPDEST POP PUSH1 0x0 SWAP1 DUP1 MLOAD SWAP1 PUSH1 0x20 ADD SWAP1 PUSH2 0x902 SWAP3 SWAP2 SWAP1 PUSH2 0x9F7 JUMP JUMPDEST POP TIMESTAMP PUSH1 0x2 DUP2 SWAP1 SSTORE POP PUSH1 0x0 DUP2 PUSH20 0xFFFFFFFFFFFFFFFFFFFFFFFFFFFFFFFFFFFFFFFF AND SELFBALANCE PUSH1 0x40 MLOAD PUSH2 0x930 SWAP1 PUSH2 0xDB8 JUMP JUMPDEST PUSH1 0x0 PUSH1 0x40 MLOAD DUP1 DUP4 SUB DUP2 DUP6 DUP8 GAS CALL SWAP3 POP POP POP RETURNDATASIZE DUP1 PUSH1 0x0 DUP2 EQ PUSH2 0x96D JUMPI PUSH1 0x40 MLOAD SWAP2 POP PUSH1 0x1F NOT PUSH1 0x3F RETURNDATASIZE ADD AND DUP3 ADD PUSH1 0x40 MSTORE RETURNDATASIZE DUP3 MSTORE RETURNDATASIZE PUSH1 0x0 PUSH1 0x20 DUP5 ADD RETURNDATACOPY PUSH2 0x972 JUMP JUMPDEST PUSH1 0x60 SWAP2 POP JUMPDEST POP POP SWAP1 POP DUP1 PUSH2 0x9AD JUMPI PUSH1 0x40 MLOAD PUSH32 0x93861D6800000000000000000000000000000000000000000000000000000000 DUP2 MSTORE PUSH1 0x4 ADD PUSH1 0x40 MLOAD DUP1 SWAP2 SUB SWAP1 REVERT JUMPDEST DUP2 PUSH20 0xFFFFFFFFFFFFFFFFFFFFFFFFFFFFFFFFFFFFFFFF AND PUSH32 0x5B690EC4A06FE979403046EAEEA5B3CE38524683C3001F662C8B5A829632F7DF PUSH1 0x40 MLOAD PUSH1 0x40 MLOAD DUP1 SWAP2 SUB SWAP1 LOG2 POP POP POP POP POP JUMP JUMPDEST DUP3 DUP1 SLOAD DUP3 DUP3 SSTORE SWAP1 PUSH1 0x0 MSTORE PUSH1 0x20 PUSH1 0x0 KECCAK256 SWAP1 DUP2 ADD SWAP3 DUP3 ISZERO PUSH2 0xA70 JUMPI SWAP2 PUSH1 0x20 MUL DUP3 ADD JUMPDEST DUP3 DUP2 GT ISZERO PUSH2 0xA6F JUMPI DUP3 MLOAD DUP3 PUSH1 0x0 PUSH2 0x100 EXP DUP2 SLOAD DUP2 PUSH20 0xFFFFFFFFFFFFFFFFFFFFFFFFFFFFFFFFFFFFFFFF MUL NOT AND SWAP1 DUP4 PUSH20 0xFFFFFFFFFFFFFFFFFFFFFFFFFFFFFFFFFFFFFFFF AND MUL OR SWAP1 SSTORE POP SWAP2 PUSH1 0x20 ADD SWAP2 SWAP1 PUSH1 0x1 ADD SWAP1 PUSH2 0xA17 JUMP JUMPDEST JUMPDEST POP SWAP1 POP PUSH2 0xA7D SWAP2 SWAP1 PUSH2 0xA81 JUMP JUMPDEST POP SWAP1 JUMP JUMPDEST JUMPDEST DUP1 DUP3 GT ISZERO PUSH2 0xA9A JUMPI PUSH1 0x0 DUP2 PUSH1 0x0 SWAP1 SSTORE POP PUSH1 0x1 ADD PUSH2 0xA82 JUMP JUMPDEST POP SWAP1 JUMP JUMPDEST PUSH1 0x0 PUSH2 0xAB1 PUSH2 0xAAC DUP5 PUSH2 0xF26 JUMP JUMPDEST PUSH2 0xF01 JUMP JUMPDEST SWAP1 POP DUP1 DUP4 DUP3 MSTORE PUSH1 0x20 DUP3 ADD SWAP1 POP DUP3 DUP6 PUSH1 0x20 DUP7 MUL DUP3 ADD GT ISZERO PUSH2 0xAD4 JUMPI PUSH2 0xAD3 PUSH2 0x122D JUMP JUMPDEST JUMPDEST PUSH1 0x0 JUMPDEST DUP6 DUP2 LT ISZERO PUSH2 0xB04 JUMPI DUP2 PUSH2 0xAEA DUP9 DUP3 PUSH2 0xBAC JUMP JUMPDEST DUP5 MSTORE PUSH1 0x20 DUP5 ADD SWAP4 POP PUSH1 0x20 DUP4 ADD SWAP3 POP POP PUSH1 0x1 DUP2 ADD SWAP1 POP PUSH2 0xAD7 JUMP JUMPDEST POP POP POP SWAP4 SWAP3 POP POP POP JUMP JUMPDEST PUSH1 0x0 PUSH2 0xB21 PUSH2 0xB1C DUP5 PUSH2 0xF52 JUMP JUMPDEST PUSH2 0xF01 JUMP JUMPDEST SWAP1 POP DUP3 DUP2 MSTORE PUSH1 0x20 DUP2 ADD DUP5 DUP5 DUP5 ADD GT ISZERO PUSH2 0xB3D JUMPI PUSH2 0xB3C PUSH2 0x1232 JUMP JUMPDEST JUMPDEST PUSH2 0xB48 DUP5 DUP3 DUP6 PUSH2 0x1099 JUMP JUMPDEST POP SWAP4 SWAP3 POP POP POP JUMP JUMPDEST PUSH1 0x0 DUP3 PUSH1 0x1F DUP4 ADD SLT PUSH2 0xB65 JUMPI PUSH2 0xB64 PUSH2 0x1228 JUMP JUMPDEST JUMPDEST DUP2 CALLDATALOAD PUSH2 0xB75 DUP5 DUP3 PUSH1 0x20 DUP7 ADD PUSH2 0xA9E JUMP JUMPDEST SWAP2 POP POP SWAP3 SWAP2 POP POP JUMP JUMPDEST PUSH1 0x0 DUP3 PUSH1 0x1F DUP4 ADD SLT PUSH2 0xB93 JUMPI PUSH2 0xB92 PUSH2 0x1228 JUMP JUMPDEST JUMPDEST DUP2 CALLDATALOAD PUSH2 0xBA3 DUP5 DUP3 PUSH1 0x20 DUP7 ADD PUSH2 0xB0E JUMP JUMPDEST SWAP2 POP POP SWAP3 SWAP2 POP POP JUMP JUMPDEST PUSH1 0x0 DUP2 CALLDATALOAD SWAP1 POP PUSH2 0xBBB DUP2 PUSH2 0x1269 JUMP JUMPDEST SWAP3 SWAP2 POP POP JUMP JUMPDEST PUSH1 0x0 DUP2 MLOAD SWAP1 POP PUSH2 0xBD0 DUP2 PUSH2 0x1269 JUMP JUMPDEST SWAP3 SWAP2 POP POP JUMP JUMPDEST PUSH1 0x0 PUSH1 0x20 DUP3 DUP5 SUB SLT ISZERO PUSH2 0xBEC JUMPI PUSH2 0xBEB PUSH2 0x123C JUMP JUMPDEST JUMPDEST PUSH1 0x0 DUP3 ADD CALLDATALOAD PUSH8 0xFFFFFFFFFFFFFFFF DUP2 GT ISZERO PUSH2 0xC0A JUMPI PUSH2 0xC09 PUSH2 0x1237 JUMP JUMPDEST JUMPDEST PUSH2 0xC16 DUP5 DUP3 DUP6 ADD PUSH2 0xB7E JUMP JUMPDEST SWAP2 POP POP SWAP3 SWAP2 POP POP JUMP JUMPDEST PUSH1 0x0 PUSH1 0x20 DUP3 DUP5 SUB SLT ISZERO PUSH2 0xC35 JUMPI PUSH2 0xC34 PUSH2 0x123C JUMP JUMPDEST JUMPDEST PUSH1 0x0 PUSH2 0xC43 DUP5 DUP3 DUP6 ADD PUSH2 0xBAC JUMP JUMPDEST SWAP2 POP POP SWAP3 SWAP2 POP POP JUMP JUMPDEST PUSH1 0x0 PUSH1 0x20 DUP3 DUP5 SUB SLT ISZERO PUSH2 0xC62 JUMPI PUSH2 0xC61 PUSH2 0x123C JUMP JUMPDEST JUMPDEST PUSH1 0x0 PUSH2 0xC70 DUP5 DUP3 DUP6 ADD PUSH2 0xBC1 JUMP JUMPDEST SWAP2 POP POP SWAP3 SWAP2 POP POP JUMP JUMPDEST PUSH1 0x0 DUP1 PUSH1 0x40 DUP4 DUP6 SUB SLT ISZERO PUSH2 0xC90 JUMPI PUSH2 0xC8F PUSH2 0x123C JUMP JUMPDEST JUMPDEST PUSH1 0x0 PUSH2 0xC9E DUP6 DUP3 DUP7 ADD PUSH2 0xBAC JUMP JUMPDEST SWAP3 POP POP PUSH1 0x20 DUP4 ADD CALLDATALOAD PUSH8 0xFFFFFFFFFFFFFFFF DUP2 GT ISZERO PUSH2 0xCBF JUMPI PUSH2 0xCBE PUSH2 0x1237 JUMP JUMPDEST JUMPDEST PUSH2 0xCCB DUP6 DUP3 DUP7 ADD PUSH2 0xB50 JUMP JUMPDEST SWAP2 POP POP SWAP3 POP SWAP3 SWAP1 POP JUMP JUMPDEST PUSH2 0xCDE DUP2 PUSH2 0xFDE JUMP JUMPDEST DUP3 MSTORE POP POP JUMP JUMPDEST PUSH2 0xCED DUP2 PUSH2 0xFF0 JUMP JUMPDEST DUP3 MSTORE POP POP JUMP JUMPDEST PUSH2 0xCFC DUP2 PUSH2 0xFFC JUMP JUMPDEST DUP3 MSTORE POP POP JUMP JUMPDEST PUSH1 0x0 PUSH2 0xD0D DUP3 PUSH2 0xF83 JUMP JUMPDEST PUSH2 0xD17 DUP2 DUP6 PUSH2 0xF8E JUMP JUMPDEST SWAP4 POP PUSH2 0xD27 DUP2 DUP6 PUSH1 0x20 DUP7 ADD PUSH2 0x10A8 JUMP JUMPDEST PUSH2 0xD30 DUP2 PUSH2 0x1241 JUMP JUMPDEST DUP5 ADD SWAP2 POP POP SWAP3 SWAP2 POP POP JUMP JUMPDEST PUSH2 0xD44 DUP2 PUSH2 0x1075 JUMP JUMPDEST DUP3 MSTORE POP POP JUMP JUMPDEST PUSH1 0x0 PUSH2 0xD57 PUSH1 0x0 DUP4 PUSH2 0xF9F JUMP JUMPDEST SWAP2 POP PUSH2 0xD62 DUP3 PUSH2 0x1252 JUMP JUMPDEST PUSH1 0x0 DUP3 ADD SWAP1 POP SWAP2 SWAP1 POP JUMP JUMPDEST PUSH2 0xD76 DUP2 PUSH2 0x1019 JUMP JUMPDEST DUP3 MSTORE POP POP JUMP JUMPDEST PUSH2 0xD85 DUP2 PUSH2 0x1087 JUMP JUMPDEST DUP3 MSTORE POP POP JUMP JUMPDEST PUSH2 0xD94 DUP2 PUSH2 0x1047 JUMP JUMPDEST DUP3 MSTORE POP POP JUMP JUMPDEST PUSH2 0xDA3 DUP2 PUSH2 0x1051 JUMP JUMPDEST DUP3 MSTORE POP POP JUMP JUMPDEST PUSH2 0xDB2 DUP2 PUSH2 0x1061 JUMP JUMPDEST DUP3 MSTORE POP POP JUMP JUMPDEST PUSH1 0x0 PUSH2 0xDC3 DUP3 PUSH2 0xD4A JUMP JUMPDEST SWAP2 POP DUP2 SWAP1 POP SWAP2 SWAP1 POP JUMP JUMPDEST PUSH1 0x0 PUSH1 0x20 DUP3 ADD SWAP1 POP PUSH2 0xDE2 PUSH1 0x0 DUP4 ADD DUP5 PUSH2 0xCD5 JUMP JUMPDEST SWAP3 SWAP2 POP POP JUMP JUMPDEST PUSH1 0x0 PUSH1 0x40 DUP3 ADD SWAP1 POP PUSH2 0xDFD PUSH1 0x0 DUP4 ADD DUP6 PUSH2 0xCD5 JUMP JUMPDEST PUSH2 0xE0A PUSH1 0x20 DUP4 ADD DUP5 PUSH2 0xCD5 JUMP JUMPDEST SWAP4 SWAP3 POP POP POP JUMP JUMPDEST PUSH1 0x0 PUSH1 0x40 DUP3 ADD SWAP1 POP PUSH2 0xE26 PUSH1 0x0 DUP4 ADD DUP6 PUSH2 0xCE4 JUMP JUMPDEST DUP2 DUP2 SUB PUSH1 0x20 DUP4 ADD MSTORE PUSH2 0xE38 DUP2 DUP5 PUSH2 0xD02 JUMP JUMPDEST SWAP1 POP SWAP4 SWAP3 POP POP POP JUMP JUMPDEST PUSH1 0x0 PUSH1 0xA0 DUP3 ADD SWAP1 POP PUSH2 0xE56 PUSH1 0x0 DUP4 ADD DUP9 PUSH2 0xCF3 JUMP JUMPDEST PUSH2 0xE63 PUSH1 0x20 DUP4 ADD DUP8 PUSH2 0xDA9 JUMP JUMPDEST PUSH2 0xE70 PUSH1 0x40 DUP4 ADD DUP7 PUSH2 0xD6D JUMP JUMPDEST PUSH2 0xE7D PUSH1 0x60 DUP4 ADD DUP6 PUSH2 0xD9A JUMP JUMPDEST PUSH2 0xE8A PUSH1 0x80 DUP4 ADD DUP5 PUSH2 0xD7C JUMP JUMPDEST SWAP7 SWAP6 POP POP POP POP POP POP JUMP JUMPDEST PUSH1 0x0 PUSH1 0x20 DUP3 ADD SWAP1 POP PUSH2 0xEA9 PUSH1 0x0 DUP4 ADD DUP5 PUSH2 0xD3B JUMP JUMPDEST SWAP3 SWAP2 POP POP JUMP JUMPDEST PUSH1 0x0 PUSH1 0x20 DUP3 ADD SWAP1 POP PUSH2 0xEC4 PUSH1 0x0 DUP4 ADD DUP5 PUSH2 0xD8B JUMP JUMPDEST SWAP3 SWAP2 POP POP JUMP JUMPDEST PUSH1 0x0 PUSH1 0x60 DUP3 ADD SWAP1 POP PUSH2 0xEDF PUSH1 0x0 DUP4 ADD DUP7 PUSH2 0xD8B JUMP JUMPDEST PUSH2 0xEEC PUSH1 0x20 DUP4 ADD DUP6 PUSH2 0xD8B JUMP JUMPDEST PUSH2 0xEF9 PUSH1 0x40 DUP4 ADD DUP5 PUSH2 0xD8B JUMP JUMPDEST SWAP5 SWAP4 POP POP POP POP JUMP JUMPDEST PUSH1 0x0 PUSH2 0xF0B PUSH2 0xF1C JUMP JUMPDEST SWAP1 POP PUSH2 0xF17 DUP3 DUP3 PUSH2 0x10DB JUMP JUMPDEST SWAP2 SWAP1 POP JUMP JUMPDEST PUSH1 0x0 PUSH1 0x40 MLOAD SWAP1 POP SWAP1 JUMP JUMPDEST PUSH1 0x0 PUSH8 0xFFFFFFFFFFFFFFFF DUP3 GT ISZERO PUSH2 0xF41 JUMPI PUSH2 0xF40 PUSH2 0x11F9 JUMP JUMPDEST JUMPDEST PUSH1 0x20 DUP3 MUL SWAP1 POP PUSH1 0x20 DUP2 ADD SWAP1 POP SWAP2 SWAP1 POP JUMP JUMPDEST PUSH1 0x0 PUSH8 0xFFFFFFFFFFFFFFFF DUP3 GT ISZERO PUSH2 0xF6D JUMPI PUSH2 0xF6C PUSH2 0x11F9 JUMP JUMPDEST JUMPDEST PUSH2 0xF76 DUP3 PUSH2 0x1241 JUMP JUMPDEST SWAP1 POP PUSH1 0x20 DUP2 ADD SWAP1 POP SWAP2 SWAP1 POP JUMP JUMPDEST PUSH1 0x0 DUP2 MLOAD SWAP1 POP SWAP2 SWAP1 POP JUMP JUMPDEST PUSH1 0x0 DUP3 DUP3 MSTORE PUSH1 0x20 DUP3 ADD SWAP1 POP SWAP3 SWAP2 POP POP JUMP JUMPDEST PUSH1 0x0 DUP2 SWAP1 POP SWAP3 SWAP2 POP POP JUMP JUMPDEST PUSH1 0x0 PUSH2 0xFB5 DUP3 PUSH2 0x1047 JUMP JUMPDEST SWAP2 POP PUSH2 0xFC0 DUP4 PUSH2 0x1047 JUMP JUMPDEST SWAP3 POP DUP3 DUP3 LT ISZERO PUSH2 0xFD3 JUMPI PUSH2 0xFD2 PUSH2 0x113D JUMP JUMPDEST JUMPDEST DUP3 DUP3 SUB SWAP1 POP SWAP3 SWAP2 POP POP JUMP JUMPDEST PUSH1 0x0 PUSH2 0xFE9 DUP3 PUSH2 0x1027 JUMP JUMPDEST SWAP1 POP SWAP2 SWAP1 POP JUMP JUMPDEST PUSH1 0x0 DUP2 ISZERO ISZERO SWAP1 POP SWAP2 SWAP1 POP JUMP JUMPDEST PUSH1 0x0 DUP2 SWAP1 POP SWAP2 SWAP1 POP JUMP JUMPDEST PUSH1 0x0 DUP2 SWAP1 POP PUSH2 0x1014 DUP3 PUSH2 0x1255 JUMP JUMPDEST SWAP2 SWAP1 POP JUMP JUMPDEST PUSH1 0x0 PUSH2 0xFFFF DUP3 AND SWAP1 POP SWAP2 SWAP1 POP JUMP JUMPDEST PUSH1 0x0 PUSH20 0xFFFFFFFFFFFFFFFFFFFFFFFFFFFFFFFFFFFFFFFF DUP3 AND SWAP1 POP SWAP2 SWAP1 POP JUMP JUMPDEST PUSH1 0x0 DUP2 SWAP1 POP SWAP2 SWAP1 POP JUMP JUMPDEST PUSH1 0x0 PUSH4 0xFFFFFFFF DUP3 AND SWAP1 POP SWAP2 SWAP1 POP JUMP JUMPDEST PUSH1 0x0 PUSH8 0xFFFFFFFFFFFFFFFF DUP3 AND SWAP1 POP SWAP2 SWAP1 POP JUMP JUMPDEST PUSH1 0x0 PUSH2 0x1080 DUP3 PUSH2 0x1006 JUMP JUMPDEST SWAP1 POP SWAP2 SWAP1 POP JUMP JUMPDEST PUSH1 0x0 PUSH2 0x1092 DUP3 PUSH2 0x1019 JUMP JUMPDEST SWAP1 POP SWAP2 SWAP1 POP JUMP JUMPDEST DUP3 DUP2 DUP4 CALLDATACOPY PUSH1 0x0 DUP4 DUP4 ADD MSTORE POP POP POP JUMP JUMPDEST PUSH1 0x0 JUMPDEST DUP4 DUP2 LT ISZERO PUSH2 0x10C6 JUMPI DUP1 DUP3 ADD MLOAD DUP2 DUP5 ADD MSTORE PUSH1 0x20 DUP2 ADD SWAP1 POP PUSH2 0x10AB JUMP JUMPDEST DUP4 DUP2 GT ISZERO PUSH2 0x10D5 JUMPI PUSH1 0x0 DUP5 DUP5 ADD MSTORE JUMPDEST POP POP POP POP JUMP JUMPDEST PUSH2 0x10E4 DUP3 PUSH2 0x1241 JUMP JUMPDEST DUP2 ADD DUP2 DUP2 LT PUSH8 0xFFFFFFFFFFFFFFFF DUP3 GT OR ISZERO PUSH2 0x1103 JUMPI PUSH2 0x1102 PUSH2 0x11F9 JUMP JUMPDEST JUMPDEST DUP1 PUSH1 0x40 MSTORE POP POP POP JUMP JUMPDEST PUSH1 0x0 PUSH2 0x1117 DUP3 PUSH2 0x1047 JUMP JUMPDEST SWAP2 POP PUSH2 0x1122 DUP4 PUSH2 0x1047 JUMP JUMPDEST SWAP3 POP DUP3 PUSH2 0x1132 JUMPI PUSH2 0x1131 PUSH2 0x116C JUMP JUMPDEST JUMPDEST DUP3 DUP3 MOD SWAP1 POP SWAP3 SWAP2 POP POP JUMP JUMPDEST PUSH32 0x4E487B7100000000000000000000000000000000000000000000000000000000 PUSH1 0x0 MSTORE PUSH1 0x11 PUSH1 0x4 MSTORE PUSH1 0x24 PUSH1 0x0 REVERT JUMPDEST PUSH32 0x4E487B7100000000000000000000000000000000000000000000000000000000 PUSH1 0x0 MSTORE PUSH1 0x12 PUSH1 0x4 MSTORE PUSH1 0x24 PUSH1 0x0 REVERT JUMPDEST PUSH32 0x4E487B7100000000000000000000000000000000000000000000000000000000 PUSH1 0x0 MSTORE PUSH1 0x21 PUSH1 0x4 MSTORE PUSH1 0x24 PUSH1 0x0 REVERT JUMPDEST PUSH32 0x4E487B7100000000000000000000000000000000000000000000000000000000 PUSH1 0x0 MSTORE PUSH1 0x32 PUSH1 0x4 MSTORE PUSH1 0x24 PUSH1 0x0 REVERT JUMPDEST PUSH32 0x4E487B7100000000000000000000000000000000000000000000000000000000 PUSH1 0x0 MSTORE PUSH1 0x41 PUSH1 0x4 MSTORE PUSH1 0x24 PUSH1 0x0 REVERT JUMPDEST PUSH1 0x0 DUP1 REVERT JUMPDEST PUSH1 0x0 DUP1 REVERT JUMPDEST PUSH1 0x0 DUP1 REVERT JUMPDEST PUSH1 0x0 DUP1 REVERT JUMPDEST PUSH1 0x0 DUP1 REVERT JUMPDEST PUSH1 0x0 PUSH1 0x1F NOT PUSH1 0x1F DUP4 ADD AND SWAP1 POP SWAP2 SWAP1 POP JUMP JUMPDEST POP JUMP JUMPDEST PUSH1 0x2 DUP2 LT PUSH2 0x1266 JUMPI PUSH2 0x1265 PUSH2 0x119B JUMP JUMPDEST JUMPDEST POP JUMP JUMPDEST PUSH2 0x1272 DUP2 PUSH2 0x1047 JUMP JUMPDEST DUP2 EQ PUSH2 0x127D JUMPI PUSH1 0x0 DUP1 REVERT JUMPDEST POP JUMP INVALID LOG2 PUSH5 0x6970667358 0x22 SLT KECCAK256 MUL 0xC2 0xCC PUSH20 0xB6D25F85D769A9F0BA839AAB610C1AD7473D8630 RETURNDATACOPY 0xEF DUP11 0xA8 0xAD EXTCODEHASH SWAP3 PUSH23 0x64736F6C63430008070033000000000000000000000000 "},"gasEstimates":{"creation":{"codeDepositCost":"958000","executionCost":"infinite","totalCost":"infinite"},"external":{"checkUpkeep(bytes)":"infinite","enterRaffle()":"infinite","getEntranceFee()":"infinite","getInterval()":"2503","getNumWords()":"365","getPlayer(uint256)":"5055","getRaffleState()":"2591","getRecentWinner()":"2522","performUpkeep(bytes)":"infinite","rawFulfillRandomWords(uint256,uint256[])":"infinite"},"internal":{"fulfillRandomWords(uint256,uint256[] memory)":"infinite"}},"methodIdentifiers":{"checkUpkeep(bytes)":"6e04ff0d","enterRaffle()":"2cfcc539","getEntranceFee()":"09bc33a7","getInterval()":"91ad27b4","getNumWords()":"53a2c19a","getPlayer(uint256)":"e55ae4e8","getRaffleState()":"115cbaf5","getRecentWinner()":"473f1ddc","performUpkeep(bytes)":"4585e33b","rawFulfillRandomWords(uint256,uint256[])":"1fe543e3"}},"storageLayout":{"storage":[{"astId":207,"contract":"contracts/RossLottery.sol:RossRaffle","label":"s_players","offset":0,"slot":"0","type":"t_array(t_address_payable)dyn_storage"},{"astId":225,"contract":"contracts/RossLottery.sol:RossRaffle","label":"s_raffleState","offset":0,"slot":"1","type":"t_enum(RaffleState)202"},{"astId":227,"contract":"contracts/RossLottery.sol:RossRaffle","label":"s_lastTimeStamp","offset":0,"slot":"2","type":"t_uint256"},{"astId":229,"contract":"contracts/RossLottery.sol:RossRaffle","label":"i_interval","offset":0,"slot":"3","type":"t_uint256"},{"astId":231,"contract":"contracts/RossLottery.sol:RossRaffle","label":"s_recentWinner","offset":0,"slot":"4","type":"t_address"}],"types":{"t_address":{"encoding":"inplace","label":"address","numberOfBytes":"20"},"t_address_payable":{"encoding":"inplace","label":"address payable","numberOfBytes":"20"},"t_array(t_address_payable)dyn_storage":{"base":"t_address_payable","encoding":"dynamic_array","label":"address payable[]","numberOfBytes":"32"},"t_enum(RaffleState)202":{"encoding":"inplace","label":"enum RossRaffle.RaffleState","numberOfBytes":"1"},"t_uint256":{"encoding":"inplace","label":"uint256","numberOfBytes":"32"}}},"userdoc":{"kind":"user","methods":{"checkUpkeep(bytes)":{"notice":"this is a function that chainlink keeper nodes call on a regular basis they expect it to return true when true, we do a new random winner *** for this to work, our contract needs to be in an \"open\" state *** so we are not in the middle of a previous lottery"}},"version":1}}}}