{
  "_format": "hh-sol-artifact-1",
  "contractName": "RossRaffle",
  "sourceName": "contracts/RossLottery.sol",
  "abi": [
    {
      "inputs": [
        {
          "internalType": "address",
          "name": "vrfCoordinatorV2",
          "type": "address"
        },
        {
          "internalType": "uint256",
          "name": "entranceFee",
          "type": "uint256"
        },
        {
          "internalType": "bytes32",
          "name": "gasLane",
          "type": "bytes32"
        },
        {
          "internalType": "uint64",
          "name": "subscriptionId",
          "type": "uint64"
        },
        {
          "internalType": "uint32",
          "name": "callbackGasLimit",
          "type": "uint32"
        },
        {
          "internalType": "uint256",
          "name": "interval",
          "type": "uint256"
        }
      ],
      "stateMutability": "nonpayable",
      "type": "constructor"
    },
    {
      "inputs": [
        {
          "internalType": "address",
          "name": "have",
          "type": "address"
        },
        {
          "internalType": "address",
          "name": "want",
          "type": "address"
        }
      ],
      "name": "OnlyCoordinatorCanFulfill",
      "type": "error"
    },
    {
      "inputs": [
        {
          "internalType": "uint256",
          "name": "currentBalance",
          "type": "uint256"
        },
        {
          "internalType": "uint256",
          "name": "numplayers",
          "type": "uint256"
        },
        {
          "internalType": "uint256",
          "name": "raffleState",
          "type": "uint256"
        }
      ],
      "name": "RossRaffle_UpkeepNotNeeded",
      "type": "error"
    },
    {
      "inputs": [],
      "name": "RossRaffle__NotEnoughETHEntered",
      "type": "error"
    },
    {
      "inputs": [],
      "name": "RossRaffle__NotOpen",
      "type": "error"
    },
    {
      "inputs": [],
      "name": "RossRaffle__TransferFailed",
      "type": "error"
    },
    {
      "anonymous": false,
      "inputs": [
        {
          "indexed": true,
          "internalType": "address",
          "name": "player",
          "type": "address"
        }
      ],
      "name": "RaffleEnter",
      "type": "event"
    },
    {
      "anonymous": false,
      "inputs": [
        {
          "indexed": true,
          "internalType": "uint256",
          "name": "requestId",
          "type": "uint256"
        }
      ],
      "name": "RequestedRaffleWinner",
      "type": "event"
    },
    {
      "anonymous": false,
      "inputs": [
        {
          "indexed": true,
          "internalType": "address",
          "name": "winner",
          "type": "address"
        }
      ],
      "name": "WinnerPicked",
      "type": "event"
    },
    {
      "inputs": [
        {
          "internalType": "bytes",
          "name": "",
          "type": "bytes"
        }
      ],
      "name": "checkUpkeep",
      "outputs": [
        {
          "internalType": "bool",
          "name": "upkeepNeeded",
          "type": "bool"
        },
        {
          "internalType": "bytes",
          "name": "something",
          "type": "bytes"
        }
      ],
      "stateMutability": "view",
      "type": "function"
    },
    {
      "inputs": [],
      "name": "enterRaffle",
      "outputs": [],
      "stateMutability": "payable",
      "type": "function"
    },
    {
      "inputs": [],
      "name": "getEntranceFee",
      "outputs": [
        {
          "internalType": "uint256",
          "name": "",
          "type": "uint256"
        }
      ],
      "stateMutability": "view",
      "type": "function"
    },
    {
      "inputs": [],
      "name": "getInterval",
      "outputs": [
        {
          "internalType": "uint256",
          "name": "",
          "type": "uint256"
        }
      ],
      "stateMutability": "view",
      "type": "function"
    },
    {
      "inputs": [],
      "name": "getNumWords",
      "outputs": [
        {
          "internalType": "uint256",
          "name": "",
          "type": "uint256"
        }
      ],
      "stateMutability": "pure",
      "type": "function"
    },
    {
      "inputs": [
        {
          "internalType": "uint256",
          "name": "index",
          "type": "uint256"
        }
      ],
      "name": "getPlayer",
      "outputs": [
        {
          "internalType": "address",
          "name": "",
          "type": "address"
        }
      ],
      "stateMutability": "view",
      "type": "function"
    },
    {
      "inputs": [],
      "name": "getRaffleState",
      "outputs": [
        {
          "internalType": "enum RossRaffle.RaffleState",
          "name": "",
          "type": "uint8"
        }
      ],
      "stateMutability": "view",
      "type": "function"
    },
    {
      "inputs": [],
      "name": "getRecentWinner",
      "outputs": [
        {
          "internalType": "address",
          "name": "",
          "type": "address"
        }
      ],
      "stateMutability": "view",
      "type": "function"
    },
    {
      "inputs": [
        {
          "internalType": "bytes",
          "name": "",
          "type": "bytes"
        }
      ],
      "name": "performUpkeep",
      "outputs": [],
      "stateMutability": "nonpayable",
      "type": "function"
    },
    {
      "inputs": [
        {
          "internalType": "uint256",
          "name": "requestId",
          "type": "uint256"
        },
        {
          "internalType": "uint256[]",
          "name": "randomWords",
          "type": "uint256[]"
        }
      ],
      "name": "rawFulfillRandomWords",
      "outputs": [],
      "stateMutability": "nonpayable",
      "type": "function"
    }
  ],
  "bytecode": "0x6101406040523480156200001257600080fd5b5060405162001689380380620016898339818101604052810190620000389190620001ab565b858073ffffffffffffffffffffffffffffffffffffffff1660808173ffffffffffffffffffffffffffffffffffffffff1660601b81525050508460a081815250508573ffffffffffffffffffffffffffffffffffffffff1660c08173ffffffffffffffffffffffffffffffffffffffff1660601b815250508360e081815250508267ffffffffffffffff166101008167ffffffffffffffff1660c01b815250508163ffffffff166101208163ffffffff1660e01b815250506000600160006101000a81548160ff02191690836001811115620001195762000118620002b3565b5b0217905550426002819055508060038190555050505050505062000369565b6000815190506200014981620002e7565b92915050565b600081519050620001608162000301565b92915050565b60008151905062000177816200031b565b92915050565b6000815190506200018e8162000335565b92915050565b600081519050620001a5816200034f565b92915050565b60008060008060008060c08789031215620001cb57620001ca620002e2565b5b6000620001db89828a0162000138565b9650506020620001ee89828a0162000166565b95505060406200020189828a016200014f565b94505060606200021489828a0162000194565b93505060806200022789828a016200017d565b92505060a06200023a89828a0162000166565b9150509295509295509295565b6000620002548262000265565b9050919050565b6000819050919050565b600073ffffffffffffffffffffffffffffffffffffffff82169050919050565b6000819050919050565b600063ffffffff82169050919050565b600067ffffffffffffffff82169050919050565b7f4e487b7100000000000000000000000000000000000000000000000000000000600052602160045260246000fd5b600080fd5b620002f28162000247565b8114620002fe57600080fd5b50565b6200030c816200025b565b81146200031857600080fd5b50565b620003268162000285565b81146200033257600080fd5b50565b62000340816200028f565b81146200034c57600080fd5b50565b6200035a816200029f565b81146200036657600080fd5b50565b60805160601c60a05160c05160601c60e0516101005160c01c6101205160e01c6112b6620003d360003960006105e9015260006105c6015260006105a501526000610569015260008181610248015261034501526000818161028501526102d901526112b66000f3fe6080604052600436106100915760003560e01c8063473f1ddc11610059578063473f1ddc1461014857806353a2c19a146101735780636e04ff0d1461019e57806391ad27b4146101dc578063e55ae4e81461020757610091565b806309bc33a714610096578063115cbaf5146100c15780631fe543e3146100ec5780632cfcc539146101155780634585e33b1461011f575b600080fd5b3480156100a257600080fd5b506100ab610244565b6040516100b89190610eaf565b60405180910390f35b3480156100cd57600080fd5b506100d661026c565b6040516100e39190610e94565b60405180910390f35b3480156100f857600080fd5b50610113600480360381019061010e9190610c79565b610283565b005b61011d610343565b005b34801561012b57600080fd5b5061014660048036038101906101419190610bd6565b6104b2565b005b34801561015457600080fd5b5061015d6106b0565b60405161016a9190610dcd565b60405180910390f35b34801561017f57600080fd5b506101886106da565b6040516101959190610eaf565b60405180910390f35b3480156101aa57600080fd5b506101c560048036038101906101c09190610bd6565b6106e7565b6040516101d3929190610e11565b60405180910390f35b3480156101e857600080fd5b506101f1610775565b6040516101fe9190610eaf565b60405180910390f35b34801561021357600080fd5b5061022e60048036038101906102299190610c1f565b61077f565b60405161023b9190610dcd565b60405180910390f35b60007f0000000000000000000000000000000000000000000000000000000000000000905090565b6000600160009054906101000a900460ff16905090565b7f000000000000000000000000000000000000000000000000000000000000000073ffffffffffffffffffffffffffffffffffffffff163373ffffffffffffffffffffffffffffffffffffffff161461033557337f00000000000000000000000000000000000000000000000000000000000000006040517f1cf993f400000000000000000000000000000000000000000000000000000000815260040161032c929190610de8565b60405180910390fd5b61033f82826107c6565b5050565b7f000000000000000000000000000000000000000000000000000000000000000034101561039d576040517f103c37ff00000000000000000000000000000000000000000000000000000000815260040160405180910390fd5b600060018111156103b1576103b061119b565b5b600160009054906101000a900460ff1660018111156103d3576103d261119b565b5b1461040a576040517fd6b7f30500000000000000000000000000000000000000000000000000000000815260040160405180910390fd5b6000339080600181540180825580915050600190039060005260206000200160009091909190916101000a81548173ffffffffffffffffffffffffffffffffffffffff021916908373ffffffffffffffffffffffffffffffffffffffff1602179055503373ffffffffffffffffffffffffffffffffffffffff167f0805e1d667bddb8a95f0f09880cf94f403fb596ce79928d9f29b74203ba284d460405160405180910390a2565b60006104cc604051806020016040528060008152506106e7565b5090508061053b5747600080549050600160009054906101000a900460ff1660018111156104fd576104fc61119b565b5b6040517f697a2a3e00000000000000000000000000000000000000000000000000000000815260040161053293929190610eca565b60405180910390fd5b60018060006101000a81548160ff021916908360018111156105605761055f61119b565b5b021790555060007f000000000000000000000000000000000000000000000000000000000000000073ffffffffffffffffffffffffffffffffffffffff16635d3b1d307f00000000000000000000000000000000000000000000000000000000000000007f000000000000000000000000000000000000000000000000000000000000000060037f000000000000000000000000000000000000000000000000000000000000000060016040518663ffffffff1660e01b815260040161062a959493929190610e41565b602060405180830381600087803b15801561064457600080fd5b505af1158015610658573d6000803e3d6000fd5b505050506040513d601f19601f8201168201806040525081019061067c9190610c4c565b9050807fcd6e45c8998311cab7e9d4385596cac867e20a0587194b954fa3a731c93ce78b60405160405180910390a2505050565b6000600460009054906101000a900473ffffffffffffffffffffffffffffffffffffffff16905090565b6000600161ffff16905090565b600060606000806001811115610700576106ff61119b565b5b600160009054906101000a900460ff1660018111156107225761072161119b565b5b1490506000600354600254426107389190610faa565b119050600080600080549050119050600080471190508380156107585750825b80156107615750815b801561076a5750805b955050505050915091565b6000600354905090565b6000808281548110610794576107936111ca565b5b9060005260206000200160009054906101000a900473ffffffffffffffffffffffffffffffffffffffff169050919050565b60008080549050826000815181106107e1576107e06111ca565b5b60200260200101516107f3919061110c565b9050600080828154811061080a576108096111ca565b5b9060005260206000200160009054906101000a900473ffffffffffffffffffffffffffffffffffffffff16905080600460006101000a81548173ffffffffffffffffffffffffffffffffffffffff021916908373ffffffffffffffffffffffffffffffffffffffff1602179055506000600160006101000a81548160ff0219169083600181111561089e5761089d61119b565b5b0217905550600067ffffffffffffffff8111156108be576108bd6111f9565b5b6040519080825280602002602001820160405280156108ec5781602001602082028036833780820191505090505b50600090805190602001906109029291906109f7565b504260028190555060008173ffffffffffffffffffffffffffffffffffffffff164760405161093090610db8565b60006040518083038185875af1925050503d806000811461096d576040519150601f19603f3d011682016040523d82523d6000602084013e610972565b606091505b50509050806109ad576040517f93861d6800000000000000000000000000000000000000000000000000000000815260040160405180910390fd5b8173ffffffffffffffffffffffffffffffffffffffff167f5b690ec4a06fe979403046eaeea5b3ce38524683c3001f662c8b5a829632f7df60405160405180910390a25050505050565b828054828255906000526020600020908101928215610a70579160200282015b82811115610a6f5782518260006101000a81548173ffffffffffffffffffffffffffffffffffffffff021916908373ffffffffffffffffffffffffffffffffffffffff16021790555091602001919060010190610a17565b5b509050610a7d9190610a81565b5090565b5b80821115610a9a576000816000905550600101610a82565b5090565b6000610ab1610aac84610f26565b610f01565b90508083825260208201905082856020860282011115610ad457610ad361122d565b5b60005b85811015610b045781610aea8882610bac565b845260208401935060208301925050600181019050610ad7565b5050509392505050565b6000610b21610b1c84610f52565b610f01565b905082815260208101848484011115610b3d57610b3c611232565b5b610b48848285611099565b509392505050565b600082601f830112610b6557610b64611228565b5b8135610b75848260208601610a9e565b91505092915050565b600082601f830112610b9357610b92611228565b5b8135610ba3848260208601610b0e565b91505092915050565b600081359050610bbb81611269565b92915050565b600081519050610bd081611269565b92915050565b600060208284031215610bec57610beb61123c565b5b600082013567ffffffffffffffff811115610c0a57610c09611237565b5b610c1684828501610b7e565b91505092915050565b600060208284031215610c3557610c3461123c565b5b6000610c4384828501610bac565b91505092915050565b600060208284031215610c6257610c6161123c565b5b6000610c7084828501610bc1565b91505092915050565b60008060408385031215610c9057610c8f61123c565b5b6000610c9e85828601610bac565b925050602083013567ffffffffffffffff811115610cbf57610cbe611237565b5b610ccb85828601610b50565b9150509250929050565b610cde81610fde565b82525050565b610ced81610ff0565b82525050565b610cfc81610ffc565b82525050565b6000610d0d82610f83565b610d178185610f8e565b9350610d278185602086016110a8565b610d3081611241565b840191505092915050565b610d4481611075565b82525050565b6000610d57600083610f9f565b9150610d6282611252565b600082019050919050565b610d7681611019565b82525050565b610d8581611087565b82525050565b610d9481611047565b82525050565b610da381611051565b82525050565b610db281611061565b82525050565b6000610dc382610d4a565b9150819050919050565b6000602082019050610de26000830184610cd5565b92915050565b6000604082019050610dfd6000830185610cd5565b610e0a6020830184610cd5565b9392505050565b6000604082019050610e266000830185610ce4565b8181036020830152610e388184610d02565b90509392505050565b600060a082019050610e566000830188610cf3565b610e636020830187610da9565b610e706040830186610d6d565b610e7d6060830185610d9a565b610e8a6080830184610d7c565b9695505050505050565b6000602082019050610ea96000830184610d3b565b92915050565b6000602082019050610ec46000830184610d8b565b92915050565b6000606082019050610edf6000830186610d8b565b610eec6020830185610d8b565b610ef96040830184610d8b565b949350505050565b6000610f0b610f1c565b9050610f1782826110db565b919050565b6000604051905090565b600067ffffffffffffffff821115610f4157610f406111f9565b5b602082029050602081019050919050565b600067ffffffffffffffff821115610f6d57610f6c6111f9565b5b610f7682611241565b9050602081019050919050565b600081519050919050565b600082825260208201905092915050565b600081905092915050565b6000610fb582611047565b9150610fc083611047565b925082821015610fd357610fd261113d565b5b828203905092915050565b6000610fe982611027565b9050919050565b60008115159050919050565b6000819050919050565b600081905061101482611255565b919050565b600061ffff82169050919050565b600073ffffffffffffffffffffffffffffffffffffffff82169050919050565b6000819050919050565b600063ffffffff82169050919050565b600067ffffffffffffffff82169050919050565b600061108082611006565b9050919050565b600061109282611019565b9050919050565b82818337600083830152505050565b60005b838110156110c65780820151818401526020810190506110ab565b838111156110d5576000848401525b50505050565b6110e482611241565b810181811067ffffffffffffffff82111715611103576111026111f9565b5b80604052505050565b600061111782611047565b915061112283611047565b9250826111325761113161116c565b5b828206905092915050565b7f4e487b7100000000000000000000000000000000000000000000000000000000600052601160045260246000fd5b7f4e487b7100000000000000000000000000000000000000000000000000000000600052601260045260246000fd5b7f4e487b7100000000000000000000000000000000000000000000000000000000600052602160045260246000fd5b7f4e487b7100000000000000000000000000000000000000000000000000000000600052603260045260246000fd5b7f4e487b7100000000000000000000000000000000000000000000000000000000600052604160045260246000fd5b600080fd5b600080fd5b600080fd5b600080fd5b600080fd5b6000601f19601f8301169050919050565b50565b600281106112665761126561119b565b5b50565b61127281611047565b811461127d57600080fd5b5056fea264697066735822122002c2cc73b6d25f85d769a9f0ba839aab610c1ad7473d86303eef8aa8ad3f927664736f6c63430008070033",
  "linkReferences": {},
  "deployedLinkReferences": {}
}