{
  "_format": "hh-sol-artifact-1",
  "contractName": "RossRaffle",
  "sourceName": "contracts/RossLottery.sol",
  "abi": [
    {
      "inputs": [
        {
          "internalType": "address",
          "name": "vrfCoordinatorV2",
          "type": "address"
        },
        {
          "internalType": "uint256",
          "name": "entranceFee",
          "type": "uint256"
        },
        {
          "internalType": "bytes32",
          "name": "gasLane",
          "type": "bytes32"
        },
        {
          "internalType": "uint64",
          "name": "subscriptionId",
          "type": "uint64"
        },
        {
          "internalType": "uint32",
          "name": "callbackGasLimit",
          "type": "uint32"
        },
        {
          "internalType": "uint256",
          "name": "interval",
          "type": "uint256"
        }
      ],
      "stateMutability": "nonpayable",
      "type": "constructor"
    },
    {
      "inputs": [
        {
          "internalType": "address",
          "name": "have",
          "type": "address"
        },
        {
          "internalType": "address",
          "name": "want",
          "type": "address"
        }
      ],
      "name": "OnlyCoordinatorCanFulfill",
      "type": "error"
    },
    {
      "inputs": [
        {
          "internalType": "uint256",
          "name": "currentBalance",
          "type": "uint256"
        },
        {
          "internalType": "uint256",
          "name": "numplayers",
          "type": "uint256"
        },
        {
          "internalType": "uint256",
          "name": "raffleState",
          "type": "uint256"
        }
      ],
      "name": "RossRaffle_UpkeepNotNeeded",
      "type": "error"
    },
    {
      "inputs": [],
      "name": "RossRaffle__NotEnoughETHEntered",
      "type": "error"
    },
    {
      "inputs": [],
      "name": "RossRaffle__NotOpen",
      "type": "error"
    },
    {
      "inputs": [],
      "name": "RossRaffle__TransferFailed",
      "type": "error"
    },
    {
      "anonymous": false,
      "inputs": [
        {
          "indexed": true,
          "internalType": "address",
          "name": "player",
          "type": "address"
        }
      ],
      "name": "RaffleEnter",
      "type": "event"
    },
    {
      "anonymous": false,
      "inputs": [
        {
          "indexed": true,
          "internalType": "uint256",
          "name": "requestId",
          "type": "uint256"
        }
      ],
      "name": "RequestedRaffleWinner",
      "type": "event"
    },
    {
      "anonymous": false,
      "inputs": [
        {
          "indexed": true,
          "internalType": "address",
          "name": "winner",
          "type": "address"
        }
      ],
      "name": "WinnerPicked",
      "type": "event"
    },
    {
      "inputs": [
        {
          "internalType": "bytes",
          "name": "",
          "type": "bytes"
        }
      ],
      "name": "checkUpkeep",
      "outputs": [
        {
          "internalType": "bool",
          "name": "upkeepNeeded",
          "type": "bool"
        },
        {
          "internalType": "bytes",
          "name": "",
          "type": "bytes"
        }
      ],
      "stateMutability": "nonpayable",
      "type": "function"
    },
    {
      "inputs": [],
      "name": "enterRaffle",
      "outputs": [],
      "stateMutability": "payable",
      "type": "function"
    },
    {
      "inputs": [],
      "name": "getEntranceFee",
      "outputs": [
        {
          "internalType": "uint256",
          "name": "",
          "type": "uint256"
        }
      ],
      "stateMutability": "view",
      "type": "function"
    },
    {
      "inputs": [],
      "name": "getNumWords",
      "outputs": [
        {
          "internalType": "uint256",
          "name": "",
          "type": "uint256"
        }
      ],
      "stateMutability": "pure",
      "type": "function"
    },
    {
      "inputs": [
        {
          "internalType": "uint256",
          "name": "index",
          "type": "uint256"
        }
      ],
      "name": "getPlayer",
      "outputs": [
        {
          "internalType": "address",
          "name": "",
          "type": "address"
        }
      ],
      "stateMutability": "view",
      "type": "function"
    },
    {
      "inputs": [],
      "name": "getRaffleState",
      "outputs": [
        {
          "internalType": "enum RossRaffle.RaffleState",
          "name": "",
          "type": "uint8"
        }
      ],
      "stateMutability": "view",
      "type": "function"
    },
    {
      "inputs": [],
      "name": "getRecentWinner",
      "outputs": [
        {
          "internalType": "address",
          "name": "",
          "type": "address"
        }
      ],
      "stateMutability": "view",
      "type": "function"
    },
    {
      "inputs": [
        {
          "internalType": "bytes",
          "name": "",
          "type": "bytes"
        }
      ],
      "name": "performUpkeep",
      "outputs": [],
      "stateMutability": "nonpayable",
      "type": "function"
    },
    {
      "inputs": [
        {
          "internalType": "uint256",
          "name": "requestId",
          "type": "uint256"
        },
        {
          "internalType": "uint256[]",
          "name": "randomWords",
          "type": "uint256[]"
        }
      ],
      "name": "rawFulfillRandomWords",
      "outputs": [],
      "stateMutability": "nonpayable",
      "type": "function"
    }
  ],
  "bytecode": "0x6101406040523480156200001257600080fd5b5060405162001649380380620016498339818101604052810190620000389190620001ab565b858073ffffffffffffffffffffffffffffffffffffffff1660808173ffffffffffffffffffffffffffffffffffffffff1660601b81525050508460a081815250508573ffffffffffffffffffffffffffffffffffffffff1660c08173ffffffffffffffffffffffffffffffffffffffff1660601b815250508360e081815250508267ffffffffffffffff166101008167ffffffffffffffff1660c01b815250508163ffffffff166101208163ffffffff1660e01b815250506000600160006101000a81548160ff02191690836001811115620001195762000118620002b3565b5b0217905550426002819055508060038190555050505050505062000369565b6000815190506200014981620002e7565b92915050565b600081519050620001608162000301565b92915050565b60008151905062000177816200031b565b92915050565b6000815190506200018e8162000335565b92915050565b600081519050620001a5816200034f565b92915050565b60008060008060008060c08789031215620001cb57620001ca620002e2565b5b6000620001db89828a0162000138565b9650506020620001ee89828a0162000166565b95505060406200020189828a016200014f565b94505060606200021489828a0162000194565b93505060806200022789828a016200017d565b92505060a06200023a89828a0162000166565b9150509295509295509295565b6000620002548262000265565b9050919050565b6000819050919050565b600073ffffffffffffffffffffffffffffffffffffffff82169050919050565b6000819050919050565b600063ffffffff82169050919050565b600067ffffffffffffffff82169050919050565b7f4e487b7100000000000000000000000000000000000000000000000000000000600052602160045260246000fd5b600080fd5b620002f28162000247565b8114620002fe57600080fd5b50565b6200030c816200025b565b81146200031857600080fd5b50565b620003268162000285565b81146200033257600080fd5b50565b62000340816200028f565b81146200034c57600080fd5b50565b6200035a816200029f565b81146200036657600080fd5b50565b60805160601c60a05160c05160601c60e0516101005160c01c6101205160e01c611276620003d360003960006105b3015260006105900152600061056f01526000610533015260008181610212015261030f01526000818161024f01526102a301526112766000f3fe6080604052600436106100865760003560e01c80634585e33b116100595780634585e33b14610114578063473f1ddc1461013d57806353a2c19a146101685780636e04ff0d14610193578063e55ae4e8146101d157610086565b806309bc33a71461008b578063115cbaf5146100b65780631fe543e3146100e15780632cfcc5391461010a575b600080fd5b34801561009757600080fd5b506100a061020e565b6040516100ad9190610e6f565b60405180910390f35b3480156100c257600080fd5b506100cb610236565b6040516100d89190610e54565b60405180910390f35b3480156100ed57600080fd5b5061010860048036038101906101039190610c39565b61024d565b005b61011261030d565b005b34801561012057600080fd5b5061013b60048036038101906101369190610b96565b61047c565b005b34801561014957600080fd5b5061015261067a565b60405161015f9190610d8d565b60405180910390f35b34801561017457600080fd5b5061017d6106a4565b60405161018a9190610e6f565b60405180910390f35b34801561019f57600080fd5b506101ba60048036038101906101b59190610b96565b6106b1565b6040516101c8929190610dd1565b60405180910390f35b3480156101dd57600080fd5b506101f860048036038101906101f39190610bdf565b61073f565b6040516102059190610d8d565b60405180910390f35b60007f0000000000000000000000000000000000000000000000000000000000000000905090565b6000600160009054906101000a900460ff16905090565b7f000000000000000000000000000000000000000000000000000000000000000073ffffffffffffffffffffffffffffffffffffffff163373ffffffffffffffffffffffffffffffffffffffff16146102ff57337f00000000000000000000000000000000000000000000000000000000000000006040517f1cf993f40000000000000000000000000000000000000000000000000000000081526004016102f6929190610da8565b60405180910390fd5b6103098282610786565b5050565b7f0000000000000000000000000000000000000000000000000000000000000000341015610367576040517f103c37ff00000000000000000000000000000000000000000000000000000000815260040160405180910390fd5b6000600181111561037b5761037a61115b565b5b600160009054906101000a900460ff16600181111561039d5761039c61115b565b5b146103d4576040517fd6b7f30500000000000000000000000000000000000000000000000000000000815260040160405180910390fd5b6000339080600181540180825580915050600190039060005260206000200160009091909190916101000a81548173ffffffffffffffffffffffffffffffffffffffff021916908373ffffffffffffffffffffffffffffffffffffffff1602179055503373ffffffffffffffffffffffffffffffffffffffff167f0805e1d667bddb8a95f0f09880cf94f403fb596ce79928d9f29b74203ba284d460405160405180910390a2565b6000610496604051806020016040528060008152506106b1565b509050806105055747600080549050600160009054906101000a900460ff1660018111156104c7576104c661115b565b5b6040517f697a2a3e0000000000000000000000000000000000000000000000000000000081526004016104fc93929190610e8a565b60405180910390fd5b60018060006101000a81548160ff0219169083600181111561052a5761052961115b565b5b021790555060007f000000000000000000000000000000000000000000000000000000000000000073ffffffffffffffffffffffffffffffffffffffff16635d3b1d307f00000000000000000000000000000000000000000000000000000000000000007f000000000000000000000000000000000000000000000000000000000000000060037f000000000000000000000000000000000000000000000000000000000000000060016040518663ffffffff1660e01b81526004016105f4959493929190610e01565b602060405180830381600087803b15801561060e57600080fd5b505af1158015610622573d6000803e3d6000fd5b505050506040513d601f19601f820116820180604052508101906106469190610c0c565b9050807fcd6e45c8998311cab7e9d4385596cac867e20a0587194b954fa3a731c93ce78b60405160405180910390a2505050565b6000600460009054906101000a900473ffffffffffffffffffffffffffffffffffffffff16905090565b6000600161ffff16905090565b6000606060008060018111156106ca576106c961115b565b5b600160009054906101000a900460ff1660018111156106ec576106eb61115b565b5b1490506000600354600254426107029190610f6a565b119050600080600080549050119050600080471190508380156107225750825b801561072b5750815b80156107345750805b955050505050915091565b60008082815481106107545761075361118a565b5b9060005260206000200160009054906101000a900473ffffffffffffffffffffffffffffffffffffffff169050919050565b60008080549050826000815181106107a1576107a061118a565b5b60200260200101516107b391906110cc565b905060008082815481106107ca576107c961118a565b5b9060005260206000200160009054906101000a900473ffffffffffffffffffffffffffffffffffffffff16905080600460006101000a81548173ffffffffffffffffffffffffffffffffffffffff021916908373ffffffffffffffffffffffffffffffffffffffff1602179055506000600160006101000a81548160ff0219169083600181111561085e5761085d61115b565b5b0217905550600067ffffffffffffffff81111561087e5761087d6111b9565b5b6040519080825280602002602001820160405280156108ac5781602001602082028036833780820191505090505b50600090805190602001906108c29291906109b7565b504260028190555060008173ffffffffffffffffffffffffffffffffffffffff16476040516108f090610d78565b60006040518083038185875af1925050503d806000811461092d576040519150601f19603f3d011682016040523d82523d6000602084013e610932565b606091505b505090508061096d576040517f93861d6800000000000000000000000000000000000000000000000000000000815260040160405180910390fd5b8173ffffffffffffffffffffffffffffffffffffffff167f5b690ec4a06fe979403046eaeea5b3ce38524683c3001f662c8b5a829632f7df60405160405180910390a25050505050565b828054828255906000526020600020908101928215610a30579160200282015b82811115610a2f5782518260006101000a81548173ffffffffffffffffffffffffffffffffffffffff021916908373ffffffffffffffffffffffffffffffffffffffff160217905550916020019190600101906109d7565b5b509050610a3d9190610a41565b5090565b5b80821115610a5a576000816000905550600101610a42565b5090565b6000610a71610a6c84610ee6565b610ec1565b90508083825260208201905082856020860282011115610a9457610a936111ed565b5b60005b85811015610ac45781610aaa8882610b6c565b845260208401935060208301925050600181019050610a97565b5050509392505050565b6000610ae1610adc84610f12565b610ec1565b905082815260208101848484011115610afd57610afc6111f2565b5b610b08848285611059565b509392505050565b600082601f830112610b2557610b246111e8565b5b8135610b35848260208601610a5e565b91505092915050565b600082601f830112610b5357610b526111e8565b5b8135610b63848260208601610ace565b91505092915050565b600081359050610b7b81611229565b92915050565b600081519050610b9081611229565b92915050565b600060208284031215610bac57610bab6111fc565b5b600082013567ffffffffffffffff811115610bca57610bc96111f7565b5b610bd684828501610b3e565b91505092915050565b600060208284031215610bf557610bf46111fc565b5b6000610c0384828501610b6c565b91505092915050565b600060208284031215610c2257610c216111fc565b5b6000610c3084828501610b81565b91505092915050565b60008060408385031215610c5057610c4f6111fc565b5b6000610c5e85828601610b6c565b925050602083013567ffffffffffffffff811115610c7f57610c7e6111f7565b5b610c8b85828601610b10565b9150509250929050565b610c9e81610f9e565b82525050565b610cad81610fb0565b82525050565b610cbc81610fbc565b82525050565b6000610ccd82610f43565b610cd78185610f4e565b9350610ce7818560208601611068565b610cf081611201565b840191505092915050565b610d0481611035565b82525050565b6000610d17600083610f5f565b9150610d2282611212565b600082019050919050565b610d3681610fd9565b82525050565b610d4581611047565b82525050565b610d5481611007565b82525050565b610d6381611011565b82525050565b610d7281611021565b82525050565b6000610d8382610d0a565b9150819050919050565b6000602082019050610da26000830184610c95565b92915050565b6000604082019050610dbd6000830185610c95565b610dca6020830184610c95565b9392505050565b6000604082019050610de66000830185610ca4565b8181036020830152610df88184610cc2565b90509392505050565b600060a082019050610e166000830188610cb3565b610e236020830187610d69565b610e306040830186610d2d565b610e3d6060830185610d5a565b610e4a6080830184610d3c565b9695505050505050565b6000602082019050610e696000830184610cfb565b92915050565b6000602082019050610e846000830184610d4b565b92915050565b6000606082019050610e9f6000830186610d4b565b610eac6020830185610d4b565b610eb96040830184610d4b565b949350505050565b6000610ecb610edc565b9050610ed7828261109b565b919050565b6000604051905090565b600067ffffffffffffffff821115610f0157610f006111b9565b5b602082029050602081019050919050565b600067ffffffffffffffff821115610f2d57610f2c6111b9565b5b610f3682611201565b9050602081019050919050565b600081519050919050565b600082825260208201905092915050565b600081905092915050565b6000610f7582611007565b9150610f8083611007565b925082821015610f9357610f926110fd565b5b828203905092915050565b6000610fa982610fe7565b9050919050565b60008115159050919050565b6000819050919050565b6000819050610fd482611215565b919050565b600061ffff82169050919050565b600073ffffffffffffffffffffffffffffffffffffffff82169050919050565b6000819050919050565b600063ffffffff82169050919050565b600067ffffffffffffffff82169050919050565b600061104082610fc6565b9050919050565b600061105282610fd9565b9050919050565b82818337600083830152505050565b60005b8381101561108657808201518184015260208101905061106b565b83811115611095576000848401525b50505050565b6110a482611201565b810181811067ffffffffffffffff821117156110c3576110c26111b9565b5b80604052505050565b60006110d782611007565b91506110e283611007565b9250826110f2576110f161112c565b5b828206905092915050565b7f4e487b7100000000000000000000000000000000000000000000000000000000600052601160045260246000fd5b7f4e487b7100000000000000000000000000000000000000000000000000000000600052601260045260246000fd5b7f4e487b7100000000000000000000000000000000000000000000000000000000600052602160045260246000fd5b7f4e487b7100000000000000000000000000000000000000000000000000000000600052603260045260246000fd5b7f4e487b7100000000000000000000000000000000000000000000000000000000600052604160045260246000fd5b600080fd5b600080fd5b600080fd5b600080fd5b600080fd5b6000601f19601f8301169050919050565b50565b600281106112265761122561115b565b5b50565b61123281611007565b811461123d57600080fd5b5056fea2646970667358221220657b616f868431e078b93f4d2fc85718f25fd77704824a296c484fa3de9d163564736f6c63430008070033",
  "linkReferences": {},
  "deployedLinkReferences": {}
}