{
  "_format": "hh-sol-artifact-1",
  "contractName": "RossRaffle",
  "sourceName": "contracts/RossLottery.sol",
  "abi": [
    {
      "inputs": [
        {
          "internalType": "address",
          "name": "vrfCoordinatorV2",
          "type": "address"
        },
        {
          "internalType": "uint256",
          "name": "entranceFee",
          "type": "uint256"
        },
        {
          "internalType": "bytes32",
          "name": "gasLane",
          "type": "bytes32"
        },
        {
          "internalType": "uint64",
          "name": "subscriptionId",
          "type": "uint64"
        },
        {
          "internalType": "uint32",
          "name": "callbackGasLimit",
          "type": "uint32"
        },
        {
          "internalType": "uint256",
          "name": "interval",
          "type": "uint256"
        }
      ],
      "stateMutability": "nonpayable",
      "type": "constructor"
    },
    {
      "inputs": [
        {
          "internalType": "address",
          "name": "have",
          "type": "address"
        },
        {
          "internalType": "address",
          "name": "want",
          "type": "address"
        }
      ],
      "name": "OnlyCoordinatorCanFulfill",
      "type": "error"
    },
    {
      "inputs": [
        {
          "internalType": "uint256",
          "name": "currentBalance",
          "type": "uint256"
        },
        {
          "internalType": "uint256",
          "name": "numplayers",
          "type": "uint256"
        },
        {
          "internalType": "uint256",
          "name": "raffleState",
          "type": "uint256"
        }
      ],
      "name": "RossRaffle_UpkeepNotNeeded",
      "type": "error"
    },
    {
      "inputs": [],
      "name": "RossRaffle__NotEnoughETHEntered",
      "type": "error"
    },
    {
      "inputs": [],
      "name": "RossRaffle__NotOpen",
      "type": "error"
    },
    {
      "inputs": [],
      "name": "RossRaffle__TransferFailed",
      "type": "error"
    },
    {
      "anonymous": false,
      "inputs": [
        {
          "indexed": true,
          "internalType": "address",
          "name": "player",
          "type": "address"
        }
      ],
      "name": "RaffleEnter",
      "type": "event"
    },
    {
      "anonymous": false,
      "inputs": [
        {
          "indexed": true,
          "internalType": "uint256",
          "name": "requestId",
          "type": "uint256"
        }
      ],
      "name": "RequestedRaffleWinner",
      "type": "event"
    },
    {
      "anonymous": false,
      "inputs": [
        {
          "indexed": true,
          "internalType": "address",
          "name": "winner",
          "type": "address"
        }
      ],
      "name": "WinnerPicked",
      "type": "event"
    },
    {
      "inputs": [
        {
          "internalType": "bytes",
          "name": "",
          "type": "bytes"
        }
      ],
      "name": "checkUpkeep",
      "outputs": [
        {
          "internalType": "bool",
          "name": "upkeepNeeded",
          "type": "bool"
        },
        {
          "internalType": "bytes",
          "name": "something",
          "type": "bytes"
        }
      ],
      "stateMutability": "view",
      "type": "function"
    },
    {
      "inputs": [],
      "name": "enterRaffle",
      "outputs": [],
      "stateMutability": "payable",
      "type": "function"
    },
    {
      "inputs": [],
      "name": "getEntranceFee",
      "outputs": [
        {
          "internalType": "uint256",
          "name": "",
          "type": "uint256"
        }
      ],
      "stateMutability": "view",
      "type": "function"
    },
    {
      "inputs": [],
      "name": "getInterval",
      "outputs": [
        {
          "internalType": "uint256",
          "name": "",
          "type": "uint256"
        }
      ],
      "stateMutability": "view",
      "type": "function"
    },
    {
      "inputs": [],
      "name": "getLastTimeStamp",
      "outputs": [
        {
          "internalType": "uint256",
          "name": "",
          "type": "uint256"
        }
      ],
      "stateMutability": "view",
      "type": "function"
    },
    {
      "inputs": [],
      "name": "getNumPlayers",
      "outputs": [
        {
          "internalType": "uint256",
          "name": "",
          "type": "uint256"
        }
      ],
      "stateMutability": "view",
      "type": "function"
    },
    {
      "inputs": [],
      "name": "getNumWords",
      "outputs": [
        {
          "internalType": "uint256",
          "name": "",
          "type": "uint256"
        }
      ],
      "stateMutability": "pure",
      "type": "function"
    },
    {
      "inputs": [
        {
          "internalType": "uint256",
          "name": "index",
          "type": "uint256"
        }
      ],
      "name": "getPlayer",
      "outputs": [
        {
          "internalType": "address",
          "name": "",
          "type": "address"
        }
      ],
      "stateMutability": "view",
      "type": "function"
    },
    {
      "inputs": [],
      "name": "getRaffleState",
      "outputs": [
        {
          "internalType": "enum RossRaffle.RaffleState",
          "name": "",
          "type": "uint8"
        }
      ],
      "stateMutability": "view",
      "type": "function"
    },
    {
      "inputs": [],
      "name": "getRecentWinner",
      "outputs": [
        {
          "internalType": "address",
          "name": "",
          "type": "address"
        }
      ],
      "stateMutability": "view",
      "type": "function"
    },
    {
      "inputs": [
        {
          "internalType": "bytes",
          "name": "",
          "type": "bytes"
        }
      ],
      "name": "performUpkeep",
      "outputs": [],
      "stateMutability": "nonpayable",
      "type": "function"
    },
    {
      "inputs": [
        {
          "internalType": "uint256",
          "name": "requestId",
          "type": "uint256"
        },
        {
          "internalType": "uint256[]",
          "name": "randomWords",
          "type": "uint256[]"
        }
      ],
      "name": "rawFulfillRandomWords",
      "outputs": [],
      "stateMutability": "nonpayable",
      "type": "function"
    }
  ],
  "bytecode": "0x6101406040523480156200001257600080fd5b506040516200170b3803806200170b8339818101604052810190620000389190620001ab565b858073ffffffffffffffffffffffffffffffffffffffff1660808173ffffffffffffffffffffffffffffffffffffffff1660601b81525050508460a081815250508573ffffffffffffffffffffffffffffffffffffffff1660c08173ffffffffffffffffffffffffffffffffffffffff1660601b815250508360e081815250508267ffffffffffffffff166101008167ffffffffffffffff1660c01b815250508163ffffffff166101208163ffffffff1660e01b815250506000600160006101000a81548160ff02191690836001811115620001195762000118620002b3565b5b0217905550426002819055508060038190555050505050505062000369565b6000815190506200014981620002e7565b92915050565b600081519050620001608162000301565b92915050565b60008151905062000177816200031b565b92915050565b6000815190506200018e8162000335565b92915050565b600081519050620001a5816200034f565b92915050565b60008060008060008060c08789031215620001cb57620001ca620002e2565b5b6000620001db89828a0162000138565b9650506020620001ee89828a0162000166565b95505060406200020189828a016200014f565b94505060606200021489828a0162000194565b93505060806200022789828a016200017d565b92505060a06200023a89828a0162000166565b9150509295509295509295565b6000620002548262000265565b9050919050565b6000819050919050565b600073ffffffffffffffffffffffffffffffffffffffff82169050919050565b6000819050919050565b600063ffffffff82169050919050565b600067ffffffffffffffff82169050919050565b7f4e487b7100000000000000000000000000000000000000000000000000000000600052602160045260246000fd5b600080fd5b620002f28162000247565b8114620002fe57600080fd5b50565b6200030c816200025b565b81146200031857600080fd5b50565b620003268162000285565b81146200033257600080fd5b50565b62000340816200028f565b81146200034c57600080fd5b50565b6200035a816200029f565b81146200036657600080fd5b50565b60805160601c60a05160c05160601c60e0516101005160c01c6101205160e01c611338620003d360003960006106550152600061063201526000610611015260006105d50152600081816102b401526103b10152600081816102f1015261034501526113386000f3fe6080604052600436106100a75760003560e01c806353a2c19a1161006457806353a2c19a1461018957806355c9e926146101b45780636e04ff0d146101df57806391ad27b41461021d578063c1c244e814610248578063e55ae4e814610273576100a7565b806309bc33a7146100ac578063115cbaf5146100d75780631fe543e3146101025780632cfcc5391461012b5780634585e33b14610135578063473f1ddc1461015e575b600080fd5b3480156100b857600080fd5b506100c16102b0565b6040516100ce9190610f31565b60405180910390f35b3480156100e357600080fd5b506100ec6102d8565b6040516100f99190610f16565b60405180910390f35b34801561010e57600080fd5b5061012960048036038101906101249190610cfb565b6102ef565b005b6101336103af565b005b34801561014157600080fd5b5061015c60048036038101906101579190610c58565b61051e565b005b34801561016a57600080fd5b5061017361071c565b6040516101809190610e4f565b60405180910390f35b34801561019557600080fd5b5061019e610746565b6040516101ab9190610f31565b60405180910390f35b3480156101c057600080fd5b506101c9610753565b6040516101d69190610f31565b60405180910390f35b3480156101eb57600080fd5b5061020660048036038101906102019190610c58565b61075f565b604051610214929190610e93565b60405180910390f35b34801561022957600080fd5b506102326107ed565b60405161023f9190610f31565b60405180910390f35b34801561025457600080fd5b5061025d6107f7565b60405161026a9190610f31565b60405180910390f35b34801561027f57600080fd5b5061029a60048036038101906102959190610ca1565b610801565b6040516102a79190610e4f565b60405180910390f35b60007f0000000000000000000000000000000000000000000000000000000000000000905090565b6000600160009054906101000a900460ff16905090565b7f000000000000000000000000000000000000000000000000000000000000000073ffffffffffffffffffffffffffffffffffffffff163373ffffffffffffffffffffffffffffffffffffffff16146103a157337f00000000000000000000000000000000000000000000000000000000000000006040517f1cf993f4000000000000000000000000000000000000000000000000000000008152600401610398929190610e6a565b60405180910390fd5b6103ab8282610848565b5050565b7f0000000000000000000000000000000000000000000000000000000000000000341015610409576040517f103c37ff00000000000000000000000000000000000000000000000000000000815260040160405180910390fd5b6000600181111561041d5761041c61121d565b5b600160009054906101000a900460ff16600181111561043f5761043e61121d565b5b14610476576040517fd6b7f30500000000000000000000000000000000000000000000000000000000815260040160405180910390fd5b6000339080600181540180825580915050600190039060005260206000200160009091909190916101000a81548173ffffffffffffffffffffffffffffffffffffffff021916908373ffffffffffffffffffffffffffffffffffffffff1602179055503373ffffffffffffffffffffffffffffffffffffffff167f0805e1d667bddb8a95f0f09880cf94f403fb596ce79928d9f29b74203ba284d460405160405180910390a2565b60006105386040518060200160405280600081525061075f565b509050806105a75747600080549050600160009054906101000a900460ff1660018111156105695761056861121d565b5b6040517f697a2a3e00000000000000000000000000000000000000000000000000000000815260040161059e93929190610f4c565b60405180910390fd5b60018060006101000a81548160ff021916908360018111156105cc576105cb61121d565b5b021790555060007f000000000000000000000000000000000000000000000000000000000000000073ffffffffffffffffffffffffffffffffffffffff16635d3b1d307f00000000000000000000000000000000000000000000000000000000000000007f000000000000000000000000000000000000000000000000000000000000000060037f000000000000000000000000000000000000000000000000000000000000000060016040518663ffffffff1660e01b8152600401610696959493929190610ec3565b602060405180830381600087803b1580156106b057600080fd5b505af11580156106c4573d6000803e3d6000fd5b505050506040513d601f19601f820116820180604052508101906106e89190610cce565b9050807fcd6e45c8998311cab7e9d4385596cac867e20a0587194b954fa3a731c93ce78b60405160405180910390a2505050565b6000600460009054906101000a900473ffffffffffffffffffffffffffffffffffffffff16905090565b6000600161ffff16905090565b60008080549050905090565b6000606060008060018111156107785761077761121d565b5b600160009054906101000a900460ff16600181111561079a5761079961121d565b5b1490506000600354600254426107b0919061102c565b119050600080600080549050119050600080471190508380156107d05750825b80156107d95750815b80156107e25750805b955050505050915091565b6000600354905090565b6000600254905090565b60008082815481106108165761081561124c565b5b9060005260206000200160009054906101000a900473ffffffffffffffffffffffffffffffffffffffff169050919050565b60008080549050826000815181106108635761086261124c565b5b6020026020010151610875919061118e565b9050600080828154811061088c5761088b61124c565b5b9060005260206000200160009054906101000a900473ffffffffffffffffffffffffffffffffffffffff16905080600460006101000a81548173ffffffffffffffffffffffffffffffffffffffff021916908373ffffffffffffffffffffffffffffffffffffffff1602179055506000600160006101000a81548160ff021916908360018111156109205761091f61121d565b5b0217905550600067ffffffffffffffff8111156109405761093f61127b565b5b60405190808252806020026020018201604052801561096e5781602001602082028036833780820191505090505b5060009080519060200190610984929190610a79565b504260028190555060008173ffffffffffffffffffffffffffffffffffffffff16476040516109b290610e3a565b60006040518083038185875af1925050503d80600081146109ef576040519150601f19603f3d011682016040523d82523d6000602084013e6109f4565b606091505b5050905080610a2f576040517f93861d6800000000000000000000000000000000000000000000000000000000815260040160405180910390fd5b8173ffffffffffffffffffffffffffffffffffffffff167f5b690ec4a06fe979403046eaeea5b3ce38524683c3001f662c8b5a829632f7df60405160405180910390a25050505050565b828054828255906000526020600020908101928215610af2579160200282015b82811115610af15782518260006101000a81548173ffffffffffffffffffffffffffffffffffffffff021916908373ffffffffffffffffffffffffffffffffffffffff16021790555091602001919060010190610a99565b5b509050610aff9190610b03565b5090565b5b80821115610b1c576000816000905550600101610b04565b5090565b6000610b33610b2e84610fa8565b610f83565b90508083825260208201905082856020860282011115610b5657610b556112af565b5b60005b85811015610b865781610b6c8882610c2e565b845260208401935060208301925050600181019050610b59565b5050509392505050565b6000610ba3610b9e84610fd4565b610f83565b905082815260208101848484011115610bbf57610bbe6112b4565b5b610bca84828561111b565b509392505050565b600082601f830112610be757610be66112aa565b5b8135610bf7848260208601610b20565b91505092915050565b600082601f830112610c1557610c146112aa565b5b8135610c25848260208601610b90565b91505092915050565b600081359050610c3d816112eb565b92915050565b600081519050610c52816112eb565b92915050565b600060208284031215610c6e57610c6d6112be565b5b600082013567ffffffffffffffff811115610c8c57610c8b6112b9565b5b610c9884828501610c00565b91505092915050565b600060208284031215610cb757610cb66112be565b5b6000610cc584828501610c2e565b91505092915050565b600060208284031215610ce457610ce36112be565b5b6000610cf284828501610c43565b91505092915050565b60008060408385031215610d1257610d116112be565b5b6000610d2085828601610c2e565b925050602083013567ffffffffffffffff811115610d4157610d406112b9565b5b610d4d85828601610bd2565b9150509250929050565b610d6081611060565b82525050565b610d6f81611072565b82525050565b610d7e8161107e565b82525050565b6000610d8f82611005565b610d998185611010565b9350610da981856020860161112a565b610db2816112c3565b840191505092915050565b610dc6816110f7565b82525050565b6000610dd9600083611021565b9150610de4826112d4565b600082019050919050565b610df88161109b565b82525050565b610e0781611109565b82525050565b610e16816110c9565b82525050565b610e25816110d3565b82525050565b610e34816110e3565b82525050565b6000610e4582610dcc565b9150819050919050565b6000602082019050610e646000830184610d57565b92915050565b6000604082019050610e7f6000830185610d57565b610e8c6020830184610d57565b9392505050565b6000604082019050610ea86000830185610d66565b8181036020830152610eba8184610d84565b90509392505050565b600060a082019050610ed86000830188610d75565b610ee56020830187610e2b565b610ef26040830186610def565b610eff6060830185610e1c565b610f0c6080830184610dfe565b9695505050505050565b6000602082019050610f2b6000830184610dbd565b92915050565b6000602082019050610f466000830184610e0d565b92915050565b6000606082019050610f616000830186610e0d565b610f6e6020830185610e0d565b610f7b6040830184610e0d565b949350505050565b6000610f8d610f9e565b9050610f99828261115d565b919050565b6000604051905090565b600067ffffffffffffffff821115610fc357610fc261127b565b5b602082029050602081019050919050565b600067ffffffffffffffff821115610fef57610fee61127b565b5b610ff8826112c3565b9050602081019050919050565b600081519050919050565b600082825260208201905092915050565b600081905092915050565b6000611037826110c9565b9150611042836110c9565b925082821015611055576110546111bf565b5b828203905092915050565b600061106b826110a9565b9050919050565b60008115159050919050565b6000819050919050565b6000819050611096826112d7565b919050565b600061ffff82169050919050565b600073ffffffffffffffffffffffffffffffffffffffff82169050919050565b6000819050919050565b600063ffffffff82169050919050565b600067ffffffffffffffff82169050919050565b600061110282611088565b9050919050565b60006111148261109b565b9050919050565b82818337600083830152505050565b60005b8381101561114857808201518184015260208101905061112d565b83811115611157576000848401525b50505050565b611166826112c3565b810181811067ffffffffffffffff821117156111855761118461127b565b5b80604052505050565b6000611199826110c9565b91506111a4836110c9565b9250826111b4576111b36111ee565b5b828206905092915050565b7f4e487b7100000000000000000000000000000000000000000000000000000000600052601160045260246000fd5b7f4e487b7100000000000000000000000000000000000000000000000000000000600052601260045260246000fd5b7f4e487b7100000000000000000000000000000000000000000000000000000000600052602160045260246000fd5b7f4e487b7100000000000000000000000000000000000000000000000000000000600052603260045260246000fd5b7f4e487b7100000000000000000000000000000000000000000000000000000000600052604160045260246000fd5b600080fd5b600080fd5b600080fd5b600080fd5b600080fd5b6000601f19601f8301169050919050565b50565b600281106112e8576112e761121d565b5b50565b6112f4816110c9565b81146112ff57600080fd5b5056fea264697066735822122008f8ce1c678d2d9ed6900552ab471de90dd6f149dec42e2b285b272a2b900ec664736f6c63430008070033",
  "linkReferences": {},
  "deployedLinkReferences": {}
}